* 5 ** 29JUN98 08-00-0709-0709   08-00-0709-0709-9                                                                    199818015105044
1 5 ** 29JUN98 ***************   08-00-0709-0709-9
SHSTALA        00000PP 1GOOD DEALS TRAFFIC BUILDE0000199808150000000000000000000000000000000000      Y
SDTY24386     00000000000018 03300N    TY24492     00000000000010 01800
BAL  01TY24492 IS UNIVERSAL ITEM IN SPRING CATALOG.
SHTSB4A        00000PP 1GOOD DEALS 1999 - SPRING 0000199808150000000000000000000000000000000000
SDAR86595     00000000000004 01000
SHSTEFA        00000PP 1GOOD DEALS TRAFFIC BUILDE0000199808150000000000000000000000000000000000
SDPMHW2857JD  00000000000024
SHTSB2A        00000PP 1GOOD DEALS 1999 - SPRING 0000199808150000000000000000000000000000000000
SDAA22372     00000000000024 01200     AA37881     00000000000024 01200
SHSTAQA        00000PP 1GOOD DEALS TRAFFIC BUILDE0000199808150000000000000000000000000000000000      Y
SDPM02702     00000000000800 03900     TY22087     00000000000072 01300
BAQ  01PM02702 IS THE UNIVERSAL ITEM IN THE AG WEEK MAILER.
SHTSB6A        00000PP 1GOOD DEALS TRAFFIC BUILDE0000199808150000000000000000000000000000000000
SDE67036      00000000000100 01400
SHSTBWA        00000PP 1GOOD DEALS TRAFFIC BUILDE0000199808150000000000000000000000000000000000
SDTY21753     00000000000025           TY23017     00000000000025 02200     TY24489     00000000000024
SHSTDDA        00000PP 1GOOD DEALS TRAFFIC BUILDE0000199808150000000000000000000000000000000000      Y
SDPM14890     00000000000060 04400N    TY15970     00000000000096 03800
BDD  01PM14890 IS THE UNIVERSAL ITEM IN THE HARVEST CATALOG.
SHSTEEA        00000PP 1GOOD DEALS TRAFFIC BUILDE0000199808150000000000000000000000000000000000
SDPM8SJP      00000000000048           TY15494     00000000000020 03600     TY16126     00000000000050 00900
SHSTEIA        00000PP 1GOOD DEALS TRAFFIC BUILDE0000199808150000000000000000000000000000000000
SDTY24490     00000000000016
SHSTDZA        00000PP 1GOOD DEALS TRAFFIC BUILDE0000199808150000000000000000000000000000000000      Y
SDPM101023    00000000000108 02600     TY24347     00000000000120 02700N    TY24347     00000000000120 02700N
BDZ  01TY24347 IS THE UNIVERSAL ITEM IN THE AG SAFETY MAILER.
SHSTEAA        00000PP 1GOOD DEALS TRAFFIC BUILDE0000199808150000000000000000000000000000000000
SDPM1343GD    00000000000024           PM3PLS      00000000000024
SHSTEGA        00000PP 1GOOD DEALS TRAFFIC BUILDE0000199808150000000000000000000000000000000000
SDPMKT2300JD  00000000000012
SHSTECA        00000PP 1GOOD DEALS TRAFFIC BUILDE0000199808150000000000000000000000000000000000      Y
SDPMDCO1999   00000000000024           PMD18004    00000000000015           PM20SS      00000000000036
SDSWLTR1000   00000000000006 01900
BEC  01PMDCO1999 IS THE UNIVERSAL ITEM FOR THE CHRISTMAS MAILER.
SHSTEJA        00000PP 1GOOD DEALS TRAFFIC BUILDE0000199808150000000000000000000000000000000000
SDTY19995     00000000000024 02500
* 5 ** 29JUN98 08-00-0709-0709   08-00-0709-0709-9                                                                    199818015105044
1 5 ** 29JUN98 ***************   08-00-0709-0709-9
SHSTTVA        02000PP 5SPECIAL OIL PROMOTION PRO0000199809300000000000000000000000000000000000      Y
SDAR63231     00000120000012           AR69444     00000010000001           AR69445     00000010000001
SDTY22000     00000060000006           TY22008     00000060000006           TY22010     00000010000001
SDTY22029     00000120000012           TY22035     00000120000012           TY22041     00000060000006
SDTY22042     00000010000001           TY22061     00000020000002           TY22062     00000020000002
SDTY22064     00000120000012           TY22065     00000010000001           TY22066     00000010000001
SDTY22067     00000060000006           TY22068     00000010000001           TY22069     00000010000001
SDTY22070     00000120000012           TY22071     00000060000006           TY22072     00000020000002
SDTY22073     00000010000001           TY22074     00000010000001           TY22075     00000010000001
SDTY22076     00000020000002           TY22088     00000010000001           TY22092     00000000000001
SDTY22093     00000000000001           TY24349     00000000000012           TY24351     00000000000001
SDTY24352     00000000000001           TY6238      00000010000001           TY6252      00000010000001
SDTY6256      00000010000001           TY6342      00000010000001           TY6344      00000010000001
SDTY6354      00000060000006           TY6364      00000120000012           TY6382      00000060000006
SDTY6383      00000010000001           TY6385      00000060000006           TY6386      00000010000001
SDTY6389      00000120000012           TY6390      00000010000001           TY6391      00000010000001
BTV  01SEE BULLETIN FOR MINIMUM TRUCKLOAD PALLET QUANTITIES.
SHSTTWA        01900PP 5SPECIAL OIL PROMOTION PRO0000199809300000000000000000000000000000000000      Y
SDAR63231     00000120000012           AR69444     00000010000001           AR69445     00000010000001
SDTY22000     00000060000006           TY22008     00000060000006           TY22010     00000010000001
SDTY22029     00000120000012           TY22035     00000120000012           TY22041     00000060000006
SDTY22042     00000010000001           TY22061     00000020000002           TY22062     00000020000002
SDTY22064     00000120000012           TY22065     00000010000001           TY22066     00000010000001
SDTY22067     00000060000006           TY22068     00000010000001           TY22069     00000010000001
SDTY22070     00000120000012           TY22071     00000060000006           TY22072     00000020000002
SDTY22073     00000010000001           TY22074     00000010000001           TY22075     00000010000001
SDTY22076     00000020000002           TY22088     00000010000001           TY22092     00000000000001
SDTY22093     00000000000001           TY24349     00000000000012           TY24351     00000000000001
SDTY24352     00000000000001           TY6238      00000010000001           TY6252      00000010000001
SDTY6256      00000010000001           TY6342      00000010000001           TY6344      00000010000001
SDTY6354      00000060000006           TY6364      00000120000012           TY6382      00000060000006
SDTY6383      00000010000001           TY6385      00000060000006           TY6386      00000010000001
SDTY6389      00000120000012           TY6390      00000010000001           TY6391      00000010000001
BTW  01SEE BULLETIN FOR MINIMUM TRUCKLOAD PALLET QUANTITIES.
SHSTTXA        01800PP 5SPECIAL OIL PROMOTION PRO0000199809300000000000000000000000000000000000      Y
SDAR63231     00000120000012           AR69444     00000010000001           AR69445     00000010000001
SDTY22000     00000060000006           TY22008     00000060000006           TY22010     00000010000001
SDTY22029     00000120000012           TY22035     00000120000012           TY22041     00000060000006
SDTY22042     00000010000001           TY22061     00000020000002           TY22062     00000020000002
SDTY22064     00000120000012           TY22065     00000010000001           TY22066     00000010000001
SDTY22067     00000060000006           TY22068     00000010000001           TY22069     00000010000001
SDTY22070     00000120000012           TY22071     00000060000006           TY22072     00000020000002
SDTY22073     00000010000001           TY22074     00000010000001           TY22075     00000010000001
SDTY22076     00000020000002           TY22088     00000010000001           TY22092     00000000000001
SDTY22093     00000000000001           TY24349     00000000000012           TY24351     00000000000001
SDTY24352     00000000000001           TY6238      00000010000001           TY6252      00000010000001
SDTY6256      00000010000001           TY6342      00000010000001           TY6344      00000010000001
SDTY6354      00000060000006           TY6364      00000120000012           TY6382      00000060000006
SDTY6383      00000010000001           TY6385      00000060000006           TY6386      00000010000001
SDTY6389      00000120000012           TY6390      00000010000001           TY6391      00000010000001
BTX  01SEE BULLETIN FOR MINIMUM TRUCKLOAD PALLET QUANTITIES.
SHSTUAA        02000PP 1SPECIAL OIL PROMO  1 STOP0000199809300000000000000000000000000000000000      Y
SDAR63231     00000120000012           AR69444     00000010000001           AR69445     00000010000001
SDTY22000     00000060000006           TY22008     00000060000006           TY22010     00000010000001
SDTY22029     00000120000012           TY22035     00000120000012           TY22041     00000060000006
SDTY22042     00000010000001           TY22061     00000020000002           TY22062     00000020000002
SDTY22064     00000120000012           TY22065     00000010000001           TY22066     00000010000001
SDTY22067     00000060000006           TY22068     00000010000001           TY22069     00000010000001
SDTY22070     00000120000012           TY22071     00000060000006           TY22072     00000020000002
SDTY22073     00000010000001           TY22074     00000010000001           TY22075     00000010000001
SDTY22076     00000020000002           TY22088     00000010000001           TY22092     00000000000001
SDTY22093     00000000000001           TY24349     00000000000012           TY24351     00000000000001
SDTY24352     00000000000001           TY6238      00000010000001           TY6252      00000010000001
SDTY6256      00000010000001           TY6342      00000010000001           TY6344      00000010000001
SDTY6354      00000060000006           TY6364      00000120000012           TY6382      00000060000006
SDTY6383      00000010000001           TY6385      00000060000006           TY6386      00000010000001
SDTY6389      00000120000012           TY6390      00000010000001           TY6391      00000010000001
BUA  01SEE BULLETIN FOR MINIMUM TRUCKLOAD PALLET QUANTITIES.
SHSTUBA        01900PP 1SPECIAL OIL PROM. 2 STOPS0000199809300000000000000000000000000000000000      Y
SDAR63231     00000120000012           AR69444     00000010000001           AR69445     00000010000001
SDTY22000     00000060000006           TY22008     00000060000006           TY22010     00000010000001
SDTY22029     00000120000012           TY22035     00000120000012           TY22041     00000060000006
SDTY22042     00000010000001           TY22061     00000020000002           TY22062     00000020000002
SDTY22064     00000120000012           TY22065     00000010000001           TY22066     00000010000001
SDTY22067     00000060000006           TY22068     00000010000001           TY22069     00000010000001
SDTY22070     00000120000012           TY22071     00000060000006           TY22072     00000020000002
SDTY22073     00000010000001           TY22074     00000010000001           TY22075     00000010000001
SDTY22076     00000020000002           TY22088     00000010000001           TY22092     00000000000001
SDTY22093     00000000000001           TY24349     00000000000012           TY24351     00000000000001
SDTY24352     00000000000001           TY6238      00000010000001           TY6252      00000010000001
SDTY6256      00000010000001           TY6342      00000010000001           TY6344      00000010000001
SDTY6354      00000060000006           TY6364      00000120000012           TY6382      00000060000006
SDTY6383      00000010000001           TY6385      00000060000006           TY6386      00000010000001
SDTY6389      00000120000012           TY6390      00000010000001           TY6391      00000010000001
BUB  01SEE BULLETIN FOR MINIMUM TRUCKLOAD PALLET QUANTITIES.
SHSTUCA        01800PP 1SPECIAL OIL PROM. 3 STOPS0000199809300000000000000000000000000000000000      Y
SDAR63231     00000120000012           AR69444     00000010000001           AR69445     00000010000001
SDTY22000     00000060000006           TY22008     00000060000006           TY22010     00000010000001
SDTY22029     00000120000012           TY22035     00000120000012           TY22041     00000060000006
SDTY22042     00000010000001           TY22061     00000020000002           TY22062     00000020000002
SDTY22064     00000120000012           TY22065     00000010000001           TY22066     00000010000001
SDTY22067     00000060000006           TY22068     00000010000001           TY22069     00000010000001
SDTY22070     00000120000012           TY22071     00000060000006           TY22072     00000020000002
SDTY22073     00000010000001           TY22074     00000010000001           TY22075     00000010000001
SDTY22076     00000020000002           TY22088     00000010000001           TY22092     00000000000001
SDTY22093     00000000000001           TY24349     00000000000012           TY24351     00000000000001
SDTY24352     00000000000001           TY6238      00000010000001           TY6252      00000010000001
SDTY6256      00000010000001           TY6342      00000010000001           TY6344      00000010000001
SDTY6354      00000060000006           TY6364      00000120000012           TY6382      00000060000006
SDTY6383      00000010000001           TY6385      00000060000006           TY6386      00000010000001
SDTY6389      00000120000012           TY6390      00000010000001           TY6391      00000010000001
BUC  01SEE BULLETIN FOR MINIMUM TRUCKLOAD PALLET QUANTITIES.
SHSTFDA        00000PP 2SPECIAL ANTIFREEZE ORDER 0000199809300000000000000000000000000000000000      Y
SDTY16035     00000000000001           TY16037     00000000000001
BFD  01TWO 55 GAL. DRUMS CAN BE MIXED WITH TWO 55 GAL. DRUMS OF OIL.
