Z03000649PRJM00245B16P31230279245    3123                                       
Z03000649PRJM0TR26B13P31230677TRX26  3123                                       
Z03000649PRJM0TR24A13P31231259TRS24  3123                                       
Z03000649PRJM0TR24B13P31230343TRX24  3123                                       
Z03000649PRJM0TR22A13P31230105TRS22  3123                                       
Z03000649PRJM0TR22A13P06490105TRS22  0649                                       
Z03000649PRJRW4030X00P064956434030   0649                                       
Z03000649PRJL03155U65P064986873155   0649                                       
Z03000649PRJL02555U69P064931672555   0649                                       
Z03000649PRJB716A0001P06490062716    0649                                       
Z03000649PRJT      00P06490000175    0649                                       
Z03000649PRJL02555U69P064931673940   0649                                       
Z03000649PRJR      00P064900003940   0649                                       
Z03000649PRJH      30P064904514400   0649                                       
Z03000649PRJH      30P064904514400   0649                                       
Z03000649PRJT00213P23P064922664020   0649                                       
Z03000649PRJT00213P23P064922664020   0649                                       
Z03000649PRJT      00P06490000450    0649                                       
Z03000649PRJR      00P064900003020   0649                                       
Z03000649PRJR      00P064900004230   0649                                       
Z03000649PR163717 010P0649000494666BPINECREST COUNTRY CLUB          0649    0649
Z03000649PR263717 02 P0649                               15825    USC       0649
Z03000649PR463717 041P064900 FRANKLIN AVE.                                  0649
Z03000649PR563717 058P064914-849-4666           BROOKVILLE          PA      0649
Z03000649PR663717 061P31231070   HM01070A11573700001993061594N        0000003123
Z03000649PR863717 07 P3123             00006                                3123
