CG                                N A     N N N                                     000000000000000000000000000000000000
CG0001AR     0000000001           000000000010400000      A/R CUSTOMER              000000000000000000000000000000000000
CG0001AR     0000000002           000000000010901000      A/R MASTERCARD/VISA       000000000000000000000000000000000000
CG0001AR     0000000003           000000000010902000      A/R JD CREDIT CARD        000000000000000000000000000000000000
CG0001AS     0000000001           000000000053000200      AFTER SALES               000000000000000000000000000000000000
CG0001CA     0000000001           000000000010100000      CASH ON HAND              000000000000000000000000000000000000
CG0001CS     0000000020           000000000042000200      JD FARM EQUIPMENT         000000000000000000000000000000000000
CG0001CS     0000000022           000000000042200200      JD CONSUMER PRODUCT       000000000000000000000000000000000000
CG0001CS     0000000042           000000000044200200      OTHER EQUIPMENT           000000000000000000000000000000000000
CG0001CS     0000000060           000000000046000200      USED EQUIPMENT            000000000000000000000000000000000000
CG0001CS     0000000062           000000000046200200      RENT & LEASE EQUIP        000000000000000000000000000000000000
CG0001DE     0000000001           000000000023900000      CUSTOMER ADVANCE DEP      000000000000000000000000000000000000
CG0001DO     0000000020           000000000032900200      OVERALLOWANCE             000000000000000000000000000000000000
CG0001DO     0000000022           000000000032900200      OVERALLOWANCE             000000000000000000000000000000000000
CG0001DO     0000000042           000000000032900200      OVERALLOWANCE             000000000000000000000000000000000000
CG0001DO     0000000060           000000000032900200      OVERALLOWANCE             000000000000000000000000000000000000
CG0001DO     0000000062           000000000032900200      OVERALLOWANCE             000000000000000000000000000000000000
CG0001IN     0000000020           000000000012000000      JD FARM EQUIPMENT         000000000000000000000000000000000000
CG0001IN     0000000022           000000000012200000      JD CONSUMER PRODUCTS      000000000000000000000000000000000000
CG0001IN     0000000042           000000000014200000      OTHER EQUIPMENT           000000000000000000000000000000000000
CG0001IN     0000000060           000000000016000000      USED EQUIPMENT            000000000000000000000000000000000000
CG0001IN     0000000062           000000000016200000      RENT & LEASE EQUIP        000000000000000000000000000000000000
CG0001M      0000001800           000000000057200100      CREDIT & COLL EXP         000000000000000000000000000000000000
CG0001M      0000001900           000000000039001400      PICKUP/DELIVERY           000000000000000000000000000000000000
CG0001M      0000002000           000000000039001400      PREDELIVERY               000000000000000000000000000000000000
CG0001MC     0000000001           000000000000000000      FREIGHT                   000000000000000000000000000000000000
CG0001MC     0000000002           000000000054000200      DLR-FREIGHT               000000000000000000000000000000000000
CG0001MC     0000000003           000000000000000000      ORDER DISCOUNT            000000000000000000000000000000000000
CG0001MC     0000000004           000000000000000000      SETUP NEW                 000000000000000000000000000000000000
CG0001MC     0000000005           000000000000000000      RECONDITIONING            000000000000000000000000000000000000
CG0001MC     0000000006           000000000000000000      MISCELLANEOUS COSTS       000000000000000000000000000000000000
CG0001NC     0000000001           000000000024901000      TRADE IN CLEARING         000000000000000000000000000000000000
CG0001NT     0000000001           000000000011200000      NOTES RECEIVABLE          000000000000000000000000000000000000
CG0001SA     0000000020           000000000032000200      JD FARM EQUIPMENT         000000000000000000000000000000000000
CG0001SA     0000000022           000000000032200200      JD CONSUMER PRODUCT       000000000000000000000000000000000000
CG0001SA     0000000042           000000000034200200      OTHER EQUIPMENT           000000000000000000000000000000000000
CG0001SA     0000000060           000000000036000200      USED EQUIPMENT            000000000000000000000000000000000000
CG0001SA     0000000062           000000000036200200      RENT & LEASE EQUIP        000000000000000000000000000000000000
CG0001TI     0000000000           000000000024901000      TRADE IN CLEARING         000000000000000000000000000000000000
CG0001TX     0000000001           000000000023001000      SALES TAX STATE &CTY      000000000000000000000000000000000000
CG0001VP     0000000100           000000000024902000      JDAG CLEARING             000000000000000000000000000000000000
CG0001VP     0000000200           000000000024903000      JDCP CLEARING             000000000000000000000000000000000000
CG0001VP     0000000300           000000000024904000      VENDOR CLEARING           000000000000000000000000000000000000
CG0001VP     0000000500           000000000024905000      POLARIS CLEARING          000000000000000000000000000000000000
CG0001VP     0000000600           000000000024906000      H & S CLEARING            000000000000000000000000000000000000
MI                                N A A   A N                                       000000000000000000000000000000000000
MI0001C 1        0000             000000000010100000      CASH SALES                000000000000000000000000000000000000
MI0001C 2        0000             000000000010400000      CHARGE SALES              000000000000000000000000000000000000
MI0001C 3    JD  0000             000000000010902000      JD CREDIT CARD            000000000000000000000000000000000000
MI0001C 3    VISA0000             000000000010901000      MASTERCARD/VISA           000000000000000000000000000000000000
MI0001C 4        0000             000000000010500000      WARRANTY SALE             000000000000000000000000000000000000
MI0001C 5        0000             000000000098888880      INTERNAL SALE             000000000000000000000000000000000000
MI0001C 6        0000             000000000098888880      EXPENSE SALE              000000000000000000000000000000000000
MI0001C 7        0000             000000000098888880      LEASE/RENTAL              000000000000000000000000000000000000
MI0001C 8        0000             000000000046000200      RECONDITIONING            000000000000000000000000000000000000
MI0001M          0001             000000000037500300      RESTOCKING CHARGE         000000000000000000000000000000000000
MI0001M          0002             000000000038101400      CUSTOMER LABOR            000000000000000000000000000000000000
MI0001M          0003             000000000037900300      CASH DISCOUNT (-)         000000000000000000000000000000000000
MI0001M          0004             000000000053200400      POL ADJUST-SVC (-)        000000000000000000000000000000000000
MI0001M          0005             000000000037500300      FREIGHT AND HANDLING      000000000000000000000000000000000000
MI0001M          0006             000000000036200200      RENTAL SALES              000000000000000000000000000000000000
MI0001M          0007             000000000036601300      DEERE HARDWARE            000000000000000000000000000000000000
MI0001M          0008             000000000038201400      INTERNAL LABOR            000000000000000000000000000000000000
MI0001M          0009             000000000037201300      DRUM RETURN (-)           000000000000000000000000000000000000
MI0001M          0010             000000000037201300      GREASE & LUBRICANTS       000000000000000000000000000000000000
MI0001M          0011             000000000037400300      MISCELLANEOUS OTHER       000000000000000000000000000000000000
MI0001M          0012             000000000036601300      CORE RETURN (-)           000000000000000000000000000000000000
MI0001M          0013             000000000039400400      OUTSIDE LABOR & MAT.      000000000000000000000000000000000000
MI0001M          0014             000000000039200400      SERVICE VEHICLE           000000000000000000000000000000000000
MI0001M          0015             000000000037400300      TOYS                      000000000000000000000000000000000000
MI0001M          0016             000000000038301400      WARRANTY LABOR            000000000000000000000000000000000000
MI0001M          0017             000000000010500000      BATTERY WARRANTY          000000000000000000000000000000000000
MI0001M          0019             000000000039001400      PICKUP/DELIVERY           000000000000000000000000000000000000
MI0001M          0021             000000000039700400      SVC LBR DISC ALLOWED      000000000000000000000000000000000000
MI0001M          0022             000000000039800400      SVC N-LBR DISC ALLOW      000000000000000000000000000000000000
MI0001M          3721             000000000037201300      CORE RETURN OTHER         000000000000000000000000000000000000
MI0001M          3722             000000000037201300      RESTOCKING FEE-OTHER      000000000000000000000000000000000000
MI0001M          5322             000000000053200200      POLICY ADJ-SALES          000000000000000000000000000000000000
MI0001M          ROA              000000000010400000      RECEIVED ON ACCOUNT       000000000000000000000000000000000000
MI0001P          0000             000000000099901000      DEFAULT PARTS SALES       000000000037900300000000000000000000
MI0001P      1D  0000             000000000099902000      DEFAULT JD PTS SALES      000000000037900300000000000000000000
MI0001P      1M  0000             000000000099903000      DEFAULT VENDOR PTS        000000000037900300000000000000000000
MI0001P PC   1D  0000             000000000036601300      JD PARTS SLS CUSTOMER     000000000037900300000000000000000000
MI0001P PC   1M  0000             000000000037201300      VENDOR PTS SLS CUST       000000000037900300000000000000000000
MI0001P PI   1D  0000             000000000036602300      JD PTS SLS INTERNAL       000000000037900300000000000000000000
MI0001P PI   1M  0000             000000000037202300      VENDOR PTS SLS INTERNAL   000000000037900300000000000000000000
MI0001P PW   1D  0000             000000000036603300      JD PTS SLS WARRANTY       000000000037900300000000000000000000
MI0001P PW   1M  0000             000000000037203300      VENDOR PTS SLS WARRANTY   000000000037900300000000000000000000
MI0001T          0000             000000000099904000      DEFAULT SALES TAX         000000000000000000000000000000000000
MI0001T 01       0000             000000000023001000      5.5% SALES TAX            000000000000000000000000000000000000
MI0001T 02       0000             000000000023002000      5% SALES TAX              000000000000000000000000000000000000
MS                                N A A   A N A                                     000000000000000000000000000000000000
MS0001C 1        0000             000000000010100000      CASH SALES                000000000000000000000000000000000000
MS0001C 2        0000             000000000010400000      CHARGE SALES              000000000000000000000000000000000000
MS0001C 3    JD  0000             000000000010902000      JD CREDIT CARD            000000000000000000000000000000000000
MS0001C 3    VISA0000             000000000010901000      MASTERCARD/VISA           000000000000000000000000000000000000
MS0001C 4        0000             000000000010500000      WARRANTY SALE             000000000000000000000000000000000000
MS0001C 5        0000             000000000098888880      INTERNAL SALE             000000000000000000000000000000000000
MS0001C 6        0000             000000000098888880      EXPENSE SALE              000000000000000000000000000000000000
MS0001C 7        0000             000000000098888880      LEASE/RENTAL              000000000000000000000000000000000000
MS0001C 8        0000             000000000046000200      RECONDITIONING            000000000000000000000000000000000000
MS0001L          0000             000000000099920000      DEFAULT LABOR SLS         000000000039700400000000000000000000
MS0001L ACL      0000NV           000000000039901400      QT VARI-CUSTOMER          000000000000000000000000000000000000
MS0001L ACL      0000PV           000000000038103400      QT VARI-CUSTOMER          000000000000000000000000000000000000
MS0001L ACL      0001             000000000038101400      CUST LBR REPAIR           000000000039700400000000000000000000
MS0001L ACL      0002             000000000038102400      CUST LBR FIELD            000000000039700400000000000000000000
MS0001L ACL      0003             000000000038103400      CUST LBR OTHER            000000000039700400000000000000000000
MS0001L ADV      0001             000000000048701400      DEL VEH COS               000000000000000000000000000049001400
MS0001L AEE      0007             000000000048701400      EMP BEN-COFFEE BK         000000000000000000000000000051607400
MS0001L AEE      0008             000000000048702400      VAC,HOLIDAYS,SICK TIME    000000000000000000000000000051608400
MS0001L AIN      0000NV           000000000039902400      QT VARI-INTERNAL          000000000000000000000000000000000000
MS0001L AIN      0000PV           000000000038204400      QT VARI-INTERNAL          000000000000000000000000000000000000
MS0001L AIN      0001             000000000038201400      INTRNL LBR REPAIR         000000000039700400000000000000000000
MS0001L AIN      0002             000000000038202400      INTRNL LBR RECONDITIONG   000000000039700400000000000000000000
MS0001L AIN      0003             000000000038203400      INTL LBR SETUP/PREDE      000000000039700400000000000000000000
MS0001L AIN      0004             000000000038204400      INTRNL LBR OTHER          000000000039700400000000000000000000
MS0001L ALA      0001             000000000038103400      SVC LBR ALL-CUST          000000000039700400000000000039901400
MS0001L ALA      0002             000000000038204400      SVC LBR ALL-INTR          000000000039700400000000000039902400
MS0001L ALA      0003             000000000038303400      SVC LBR ALL-WARR          000000000039700400000000000039903400
MS0001L ALA      0004             000000000038403400      SVC LBR ALL-PIP           000000000039700400000000000039904400
MS0001L AME      0001             000000000048701400      R&M-SWEEPING/CLEANING     000000000000000000000000000056401400
MS0001L AME      0002             000000000048701400      R&M-BUILDING MAINT        000000000000000000000000000056402400
MS0001L AME      0003             000000000048701400      R&M-GROUNDS MAINT         000000000000000000000000000056403400
MS0001L AME      0004             000000000048701400      R&M-OTHER                 000000000000000000000000000056404400
MS0001L AME      0020             000000000048701400      REP&MNT-SALES             000000000000000000000000000056405200
MS0001L AME      0030             000000000048701400      REP&MNT-PARTS             000000000000000000000000000056405300
MS0001L AOE      0001             000000000048701400      DOWNTIME DELAYS           000000000000000000000000000059901400
MS0001L AOE      0002             000000000048701400      OTHER EXP-SERV            000000000000000000000000000059902400
MS0001L AOE      0010             000000000048701400      OTHER EXP-ADMIN           000000000000000000000000000059902100
MS0001L AOE      0020             000000000048701400      OTHER EXP-SALES           000000000000000000000000000059902200
MS0001L AOE      0030             000000000048701400      OTHER EXP-PARTS           000000000000000000000000000059902300
MS0001L APE      0001             000000000048701400      PROMO EXP-SERVICE         000000000000000000000000000052600400
MS0001L APE      0020             000000000048701400      PROMO EXP-SALES           000000000000000000000000000052600200
MS0001L APE      0030             000000000048701400      PROMO EXP-PARTS           000000000000000000000000000052600300
MS0001L APP      0000NV           000000000039904400      QUOTE VARI PIP            000000000000000000000000000000000000
MS0001L APP      0000PV           000000000038403400      QUOTE VARI PIP            000000000000000000000000000000000000
MS0001L APP      0001             000000000038401400      PIP LBR REPAIR            000000000039700400000000000000000000
MS0001L APP      0002             000000000038402400      PIP LBR FIELD             000000000039700400000000000000000000
MS0001L APP      0003             000000000038403400      PIP LBR OTHER             000000000039700400000000000000000000
MS0001L ARE      0002             000000000048701400      WARRANTY-REWORK           000000000000000000000000000052802400
MS0001L ASE      0001             000000000048701400      SPC SVC EQ DYNO           000000000000000000000000000049501400
MS0001L ASE      0002             000000000048701400      SPC SVC EQ REFRIG         000000000000000000000000000049502400
MS0001L ASE      0003             000000000048701400      SPC SVC EQ OTHER          000000000000000000000000000049503400
MS0001L ASV      0001             000000000048701400      SVC VEH COS               000000000000000000000000000049200400
MS0001L ATE      0001             000000000048701400      TRAIN-PATHFINDER          000000000000000000000000000051401400
MS0001L ATE      0002             000000000048701400      TRAINING-BRANCH           000000000000000000000000000051402400
MS0001L ATE      0003             000000000048701400      TRAIN-TERRITORY           000000000000000000000000000051403400
MS0001L ATE      0004             000000000048701400      TRAIN-ON THE JOB          000000000000000000000000000051404400
MS0001L ATE      0005             000000000048701400      TRAIN-IN-HOUSE            000000000000000000000000000051405400
MS0001L ATM      0002             000000000048701400      TECHN AS SVC MGR          000000000000000000000000000050202400
MS0001L AVE      0001             000000000048701400      VEH EXP-SALES             000000000000000000000000000054000200
MS0001L AVE      0030             000000000048701400      VEH EXP - PARTS           000000000000000000000000000054000300
MS0001L AVE      0040             000000000048701400      VEH EXP - FORKLIFT        000000000000000000000000000054000400
MS0001L AVE      0400             000000000048701400      VEHICLE EXPENSE SHOP      000000000000000000000000000054000400
MS0001L AWR      0000NV           000000000039903400      QT VARI WARRANTY          000000000000000000000000000000000000
MS0001L AWR      0000PV           000000000038303400      QT VARI WARRANTY          000000000000000000000000000000000000
MS0001L AWR      0001             000000000038301400      WARR LBR REPAIR           000000000039700400000000000000000000
MS0001L AWR      0002             000000000038302400      WARR LBR FIELD            000000000039700400000000000000000000
MS0001L AWR      0003             000000000038303400      WARR LBR OTHER            000000000039700400000000000000000000
MS0001L CCL      0000NV           000000000039901400      QT VARI-CUSTOMER          000000000000000000000000000000000000
MS0001L CCL      0000PV           000000000038103400      QT VARI-CUSTOMER          000000000000000000000000000000000000
MS0001L CCL      0001             000000000038101400      CUST LBR REPAIR           000000000039700400000000000000000000
MS0001L CCL      0002             000000000038102400      CUST LBR FIELD            000000000039700400000000000000000000
MS0001L CCL      0003             000000000038103400      CUST LBR OTHER            000000000039700400000000000000000000
MS0001L CDV      0001             000000000048701400      DEL VEH COS               000000000000000000000000000049001400
MS0001L CEE      0007             000000000048701400      EMP BEN-COFFEE BK         000000000000000000000000000051607400
MS0001L CEE      0008             000000000048702400      VAC,HOLIDAYS,SICK TIME    000000000000000000000000000051608400
MS0001L CIN      0000NV           000000000039902400      QT VARI-INTERNAL          000000000000000000000000000000000000
MS0001L CIN      0000PV           000000000038204400      QT VARI-INTERNAL          000000000000000000000000000000000000
MS0001L CIN      0001             000000000038201400      INTRNL LBR REPAIR         000000000039700400000000000000000000
MS0001L CIN      0002             000000000038202400      INTRNL LBR RECONDITIONG   000000000039700400000000000000000000
MS0001L CIN      0003             000000000038203400      INTL LBR SETUP/PREDE      000000000039700400000000000000000000
MS0001L CIN      0004             000000000038204400      INTRNL LBR OTHER          000000000039700400000000000000000000
MS0001L CLA      0001             000000000038103400      SVC LBR ALL-CUST          000000000039700400000000000039901400
MS0001L CLA      0002             000000000038204400      SVC LBR ALL-INTR          000000000039700400000000000039902400
MS0001L CLA      0003             000000000038303400      SVC LBR ALL-WARR          000000000039700400000000000039903400
MS0001L CLA      0004             000000000038403400      SVC LBR ALL-PIP           000000000039700400000000000039904400
MS0001L CME      0001             000000000048701400      R&M-SWEEPING/CLEANING     000000000000000000000000000056401400
MS0001L CME      0002             000000000048701400      R&M-BUILDING MAINT        000000000000000000000000000056402400
MS0001L CME      0003             000000000048701400      R&M-GROUNDS MAINT         000000000000000000000000000056403400
MS0001L CME      0004             000000000048701400      R&M-OTHER                 000000000000000000000000000056404400
MS0001L CME      0020             000000000048701400      REP&MNT-SALES             000000000000000000000000000056405200
MS0001L CME      0030             000000000048701400      REP&MNT-PARTS             000000000000000000000000000056405300
MS0001L COE      0001             000000000048701400      DOWNTIME DELAYS           000000000000000000000000000059901400
MS0001L COE      0002             000000000048701400      OTHER EXP-SERV            000000000000000000000000000059902400
MS0001L COE      0010             000000000048701400      OTHER EXP-ADMIN           000000000000000000000000000059902100
MS0001L COE      0020             000000000048701400      OTHER EXP-SALES           000000000000000000000000000059902200
MS0001L COE      0030             000000000048701400      OTHER EXP-PARTS           000000000000000000000000000059902300
MS0001L CPE      0001             000000000048701400      PROMO EXP-SERVICE         000000000000000000000000000052600400
MS0001L CPE      0020             000000000048701400      PROMO EXP-SALES           000000000000000000000000000052600200
MS0001L CPE      0030             000000000048701400      PROMO EXP-PARTS           000000000000000000000000000052600300
MS0001L CPP      0000NV           000000000039904400      QUOTE VARI PIP            000000000000000000000000000000000000
MS0001L CPP      0000PV           000000000038403400      QUOTE VARI PIP            000000000000000000000000000000000000
MS0001L CPP      0001             000000000038401400      PIP LBR REPAIR            000000000039700400000000000000000000
MS0001L CPP      0002             000000000038402400      PIP LBR FIELD             000000000039700400000000000000000000
MS0001L CPP      0003             000000000038403400      PIP LBR OTHER             000000000039700400000000000000000000
MS0001L CRE      0002             000000000048701400      WARRANTY-REWORK           000000000000000000000000000052802400
MS0001L CSE      0001             000000000048701400      SPC SVC EQ DYNO           000000000000000000000000000049501400
MS0001L CSE      0002             000000000048701400      SPC SVC EQ REFRIG         000000000000000000000000000049502400
MS0001L CSE      0003             000000000048701400      SPC SVC EQ OTHER          000000000000000000000000000049503400
MS0001L CSV      0001             000000000048701400      SVC VEH COS               000000000000000000000000000049200400
MS0001L CTE      0001             000000000048701400      TRAIN-PATHFINDER          000000000000000000000000000051401400
MS0001L CTE      0002             000000000048701400      TRAINING-BRANCH           000000000000000000000000000051402400
MS0001L CTE      0003             000000000048701400      TRAIN-TERRITORY           000000000000000000000000000051403400
MS0001L CTE      0004             000000000048701400      TRAIN-ON THE JOB          000000000000000000000000000051404400
MS0001L CTE      0005             000000000048701400      TRAIN-IN-HOUSE            000000000000000000000000000051405400
MS0001L CTM      0002             000000000048701400      TECHN AS SVC MGR          000000000000000000000000000050202400
MS0001L CVE      0001             000000000048701400      VEH EXP-SALES             000000000000000000000000000054000200
MS0001L CVE      0030             000000000048701400      VEH EXP - PARTS           000000000000000000000000000054000300
MS0001L CVE      0040             000000000048701400      VEH EXP - FORKLIFT        000000000000000000000000000054000400
MS0001L CWR      0000NV           000000000039903400      QT VARI WARRANTY          000000000000000000000000000000000000
MS0001L CWR      0000PV           000000000038303400      QT VARI WARRANTY          000000000000000000000000000000000000
MS0001L CWR      0001             000000000038301400      WARR LBR REPAIR           000000000039700400000000000000000000
MS0001L CWR      0002             000000000038302400      WARR LBR FIELD            000000000039700400000000000000000000
MS0001L CWR      0003             000000000038303400      WARR LBR OTHER            000000000039700400000000000000000000
MS0001M          0000NV           000000000039800400      QUOTE VARI-MISC CHGS      000000000000000000000000000000000000
MS0001M          0000PV           000000000039800400      QUOTE VARI-MISC CHGS      000000000000000000000000000000000000
MS0001M          0001             000000000037500300      RESTOCKING CHARGE         000000000037900300000000000000000000
MS0001M          0002             000000000038101400      CUSTOMER LABOR            000000000000000000000000000000000000
MS0001M          0003             000000000037900300      CASH DISCOUNT (-)         000000000037900300000000000000000000
MS0001M          0004             000000000053200400      POL ADJUST-SVC (-)        000000000039800400000000000000000000
MS0001M          0005             000000000037500300      FREIGHT AND HANDLING      000000000037900300000000000000000000
MS0001M          0006             000000000036200200      RENTAL SALES              000000000053400200000000000000000000
MS0001M          0007             000000000036601300      DEERE HARDWARE            000000000037900300000000000000000000
MS0001M          0009             000000000037201300      DRUM RETURN (-)           000000000037900300000000000000000000
MS0001M          0010             000000000037201300      GREASE & LUBRICANTS       000000000037900300000000000000000000
MS0001M          0011             000000000037400300      MISCELLANEOUS OTHER       000000000037900300000000000000000000
MS0001M          0012             000000000036601300      CORE RETURN (-)           000000000037900300000000000000000000
MS0001M          0013             000000000039400400      OUTSIDE LABOR & MAT.      000000000039800400000000000000000000
MS0001M          0014             000000000039200400      SERVICE VEHICLE           000000000039800400000000000000000000
MS0001M          0015             000000000037400300      TOYS                      000000000037900300000000000000000000
MS0001M          0017             000000000010500000      BATTERY WARRANTY          000000000037900300000000000000000000
MS0001M          0019             000000000039001400      PICKUP/DELIVERY           000000000039800400000000000000000000
MS0001M          0021             000000000039700400      SVC LBR DISC ALLOWED      000000000039700400000000000000000000
MS0001M          0022             000000000039800400      SVC N-LBR DISC ALLOW      000000000039800400000000000000000000
MS0001M          3721             000000000037201300      CORE RETURN OTHER         000000000037900300000000000000000000
MS0001M          3722             000000000037201300      RESTOCKING FEE-OTHER      000000000037900300000000000000000000
MS0001M          3770             000000000037700400      SERVICE ACCESSORIES       000000000039800400000000000000000000
MS0001M          3771             000000000037700400      SERVICE ACCESSORIES       000000000039800400000000000000000000
MS0001M          3901             000000000039001400      MILEAGE DEL-SEMI          000000000039800400000000000000000000
MS0001M          3902             000000000039002400      LABOR-DEL-SEMI            000000000039800400000000000000000000
MS0001M          3903             000000000039001400      MILEAGE DEL-STR TRK       000000000039800400000000000000000000
MS0001M          3904             000000000039002400      LABOR-DEL-STR TRK         000000000039800400000000000000000000
MS0001M          3905             000000000039001400      MILEAGE DEL-1 TON         000000000039800400000000000000000000
MS0001M          3906             000000000039002400      LABOR-DEL-1 TON           000000000039800400000000000000000000
MS0001M          3907             000000000039001400      MILEAGE DEL-FORD          000000000039800400000000000000000000
MS0001M          3908             000000000039002400      LABOR-DEL-FORD            000000000039800400000000000000000000
MS0001M          3951             000000000039501400      DYNO CHARGE               000000000039800400000000000000000000
MS0001M          3952             000000000039502400      REFRIGERANT RECOVERY      000000000039800400000000000000000000
MS0001M          3953             000000000039503400      SPC SRV EQ OTHER          000000000039800400000000000000000000
MS0001M          5281             000000000052801400      WARRANTY PAID BY DLR      000000000039800400000000000000000000
MS0001M          5282             000000000052801200      WARRANTY-SALES            000000000053400200000000000000000000
MS0001M          5322             000000000053200200      POLICY ADJ-SALES          000000000053400200000000000000000000
MS0001P          0000             000000000099921000      MI PARTS DEFAULT          000000000037900300000000000000000000
MS0001P      1D  0000             000000000099922000      JD PARTS DEFAULT          000000000037900300000000000000000000
MS0001P      1M  0000             000000000099923000      VENDOR PARTS DEFAULT      000000000037900300000000000000000000
MS0001P PC       0000NV           000000000037900300      QUOTE VARI-CUSTOMER       000000000000000000000000000000000000
MS0001P PC       0000PV           000000000037900300      QUOTE VARI-CUSTOMER       000000000000000000000000000000000000
MS0001P PC   1D  0000             000000000036601300      JD PARTS SLS CUST         000000000037900300000000000000000000
MS0001P PC   1M  0000             000000000037201300      OTHER PARTS CUST          000000000037900300000000000000000000
MS0001P PI       0000NV           000000000037900300      QUOTE VARI-INTERNAL       000000000000000000000000000000000000
MS0001P PI       0000PV           000000000037900300      QUOTE VARI-INTERNAL       000000000000000000000000000000000000
MS0001P PI   1D  0000             000000000036602300      JD PARTS INT              000000000037900300000000000000000000
MS0001P PI   1M  0000             000000000037202300      OTHER PARTS INT           000000000037900300000000000000000000
MS0001P PW       0000NV           000000000037900300      QUOTE VARI-WARRANTY       000000000000000000000000000000000000
MS0001P PW       0000PV           000000000037900300      QUOTE VARI-WARRANTY       000000000000000000000000000000000000
MS0001P PW   1D  0000             000000000036603300      JD PARTS WARR             000000000037900300000000000000000000
MS0001P PW   1M  0000             000000000037203300      OTHER PARTS WARR          000000000037900300000000000000000000
MS0001T          0000             000000000099904000      DEFAULT SALES TAX         000000000000000000000000000000000000
MS0001T 01       0000             000000000023001000      5.5% SALES TAX            000000000000000000000000000000000000
MS0001T 02       0000             000000000023002000      5% SALES TAX              000000000000000000000000000000000000
MS0001U          0000             000000000017800000      WORK IN PROCESS           000000000000000000000000000000000000
MS0001W AG       0000             000000000020000000      WARRANTY RECON            000000000052801200000000000000000000
MS0001W CP       0000             000000000020200000      WARRANTY RECON            000000000052801200000000000000000000
MX                                N                                                 000000000000000000000000000000000000
MX0001                            000000000000000000N Y   RESTOCKING CHARGE         000000000000000000000000000000000001
MX0002                            000000000000000000N N   CUSTOMER LABOR            000000000000000000000000000000000001
MX0003                            000000000000000000N Y   CASH DISCOUNT (-)         000000000000000000000000000000000001
MX0004                            000000000000000000N Y   POL ADJUST-SVC (-)        000000000000000000000000000000000001
MX0005                            000000000000000000N N   FREIGHT AND HANDLING      000000000000000000000000000000000001
MX0006                            000000000000000000N N   RENTAL SALES              000000000000000000000000000000000001
MX0007                            000000000000000000N Y   DEERE HARDWARE            000000000000000000000000000000000001
MX0008                            000000000000000000N N   INTERNAL LABOR            000000000000000000000000000000000001
MX0009                            000000000000000000N N   DRUM RETURN (-)           000000000000000000000000000000000001
MX0010                            000000000000000000N Y   GREASE & LUBRICANTS       000000000000000000000000000000000001
MX0011                            000000000000000000N N   MISCELLANEOUS OTHER       000000000000000000000000000000000001
MX0012                            000000000000000000N N   CORE RETURN JD (-)        000000000000000000000000000000000001
MX0013                            000000000000000000N Y   OUTSIDE LABOR & MAT.      000000000000000000000000000000000001
MX0014                            000000000000000000Y Y   MILEAGE-SERVICE VEH       000000000000000500000000000000000001
MX0015                            000000000000000000N Y   TOYS                      000000000000000000000000000000000001
MX0016                            000000000000000000N N   WARRANTY LABOR            000000000000000000000000000000000001
MX0017                            000000000000000000N Y   BATTERY WARRANTY          000000000000000000000000000000000001
MX0018                            000000000000000000N N   CREDIT & COLL EXP         000000000000000000000000000000000001
MX0019                            000000000000000000N N   PICKUP & DELIVERY         000000000000000000000000000000000001
MX0020                            000000000000000000N Y   DELIVERY TAXABLE          000000000000000000000000000000000001
MX0021                            000000000000000000N Y   SVC LABOR DISCOUNT        000000000000000000000000000000000001
MX0022                            000000000000000000N Y   SVC NON-LBR DISCOUNT      000000000000000000000000000000000001
MX3721                            000000000000000000N N   CORE RET OTHER (-)        000000000000000000000000000000000001
MX3722                            000000000000000000N N   RESTOCKING FEE-OTHER      000000000000000000000000000000000001
MX3770                            000000000000000000N Y   SERVICE ACCESSORIES       000000000000000000000000000000000001
MX3771                            000000000000000000N Y   SERVICE ACCESSORIES    Y  000000000000001000000000000000001000
MX3771               L            000000000000000000N Y   SERVICE ACCESSORIES       000000000000000000000000000000000000
MX3771               P            000000000000000000N Y   SERVICE ACCESSORIES       000000000000000000000000000000000000
MX3901                            000000000000000000Y N   MILEAGE-DEL-SEMI          000000000000002500000000000000000001
MX3902                            000000000000000000  N   MILEAGE-LBR-SEMI          000000000000000000000000000000000001
MX3903                            000000000000000000Y N   MILEAGE-DEL-STR TRK       000000000000001500000000000000000001
MX3904                            000000000000000000  N   MILEAGE-LBR-STR TRK       000000000000000000000000000000000001
MX3905                            000000000000000000Y N   MILEAGE-DEL-1-TON         000000000000000500000000000000000001
MX3906                            000000000000000000  N   MILEAGE-LBR-1-TON         000000000000000000000000000000000001
MX3907                            000000000000000000Y Y   MILEAGE-DEL-FORD          000000000000000500000000000000000001
MX3908                            000000000000000000  Y   MILEAGE-LBR-FORD          000000000000000000000000000000000001
MX3951                            000000000000000000N N   DYNO CHARGE               000000000000030000000000000000000001
MX3952                            000000000000000000N Y   REFRIGERANT RECOVERY      000000000000030000000000000000000001
MX3953                            000000000000000000N Y   SPC SRV EQ OTHER          000000000000000000000000000000000001
MX5281                            000000000000000000N N   WARRANTY PAID BY DLR      000000000000000000000000000000000001
MX5282                            000000000000000000N N   WARRANTY-SALES            000000000000000000000000000000000001
MX5322                            000000000000000000N Y   POL ADJUST-SALES (-)      000000000000000000000000000000000001
MXROA                             000000000000000000N N   RECEIVED ON ACCOUNT       000000000000000000000000000000000001
