AP                                N       N N                                       000000000000000000000000000000000000
AP0001       00000000             000000000021500000      ACCOUNTS PAYABLE          000000000000000000000000000000000000
AP0001       00105146             000000000051406100      TRAINING                  000000000000000000000000000000000000
AP0001       00105220             000000000052200100      TRAVEL                    000000000000000000000000000000000000
AP0001       00105240             000000000052400100      ENTERTAINMENT             000000000000000000000000000000000000
AP0001       00105260             000000000052600100      ADVERTISING & PROMO       000000000000000000000000000000000000
AP0001       00105401             000000000054001100      VEHICLE EXPENSE           000000000000000000000000000000000000
AP0001       00105440             000000000054400100      SUPPLIES                  000000000000000000000000000000000000
AP0001       00105460             000000000054600100      POSTAGE                   000000000000000000000000000000000000
AP0001       00105480             000000000054800100      TELEPHONE                 000000000000000000000000000000000000
AP0001       00105500             000000000055000100      DATA PROCESSING           000000000000000000000000000000000000
AP0001       00105520             000000000055200100      DUES & SUBSCRIPTIONS      000000000000000000000000000000000000
AP0001       00105540             000000000055400100      CONTRIBUTIONS             000000000000000000000000000000000000
AP0001       00105560             000000000055600100      UTILITIES                 000000000000000000000000000000000000
AP0001       00105580             000000000055800100      RENT & LEASE              000000000000000000000000000000000000
AP0001       00105600             000000000056000100      INSURANCE                 000000000000000000000000000000000000
AP0001       00105644             000000000056404100      REPAIR & MAINTENANCE      000000000000000000000000000000000000
AP0001       00105840             000000000058400100      BANK CHARGES              000000000000000000000000000000000000
AP0001       00105880             000000000058000100      LEGAL EXPENSE             000000000000000000000000000000000000
AP0001       00105992             000000000059902100      OTHER EXPENSE             000000000000000000000000000000000000
AP0001       00205146             000000000051406200      TRAINING                  000000000000000000000000000000000000
AP0001       00205200             000000000052000200      DEMONSTRATION             000000000000000000000000000000000000
AP0001       00205220             000000000052200200      TRAVEL                    000000000000000000000000000000000000
AP0001       00205240             000000000052400200      ENTERTAINMENT             000000000000000000000000000000000000
AP0001       00205260             000000000052600200      ADVERTISING & PROMO       000000000000000000000000000000000000
AP0001       00205300             000000000053000200      AFTER SALES               000000000000000000000000000000000000
AP0001       00205401             000000000054001200      VEHICLE EXPENSE           000000000000000000000000000000000000
AP0001       00205440             000000000054400200      SUPPLIES                  000000000000000000000000000000000000
AP0001       00205460             000000000054600200      POSTAGE                   000000000000000000000000000000000000
AP0001       00205480             000000000054800200      TELEPHONE                 000000000000000000000000000000000000
AP0001       00205500             000000000055000200      DATA PROCESSING           000000000000000000000000000000000000
AP0001       00205520             000000000055200200      DUES & SUBSCRIPTIONS      000000000000000000000000000000000000
AP0001       00205540             000000000055400200      CONTRIBUTIONS             000000000000000000000000000000000000
AP0001       00205560             000000000055600200      UTILITIES                 000000000000000000000000000000000000
AP0001       00205580             000000000055800200      RENT & LEASE              000000000000000000000000000000000000
AP0001       00205600             000000000056000200      INSURANCE                 000000000000000000000000000000000000
AP0001       00205640             000000000056404200      REPAIR & MAINTENANCE      000000000000000000000000000000000000
AP0001       00205880             000000000058000200      LEGAL EXPENSE             000000000000000000000000000000000000
AP0001       00205992             000000000059902200      OTHER EXPENSE             000000000000000000000000000000000000
AP0001       00305146             000000000051406300      TRAINING                  000000000000000000000000000000000000
AP0001       00305200             000000000052000300      DEMONSTRATION             000000000000000000000000000000000000
AP0001       00305220             000000000052200300      TRAVEL                    000000000000000000000000000000000000
AP0001       00305240             000000000052400300      ENTERTAINMENT             000000000000000000000000000000000000
AP0001       00305260             000000000052600300      ADVERTISING & PROMO       000000000000000000000000000000000000
AP0001       00305300             000000000053000300      AFTER SALES               000000000000000000000000000000000000
AP0001       00305401             000000000054001300      VEHICLE EXPENSE           000000000000000000000000000000000000
AP0001       00305440             000000000054400300      SUPPLIES                  000000000000000000000000000000000000
AP0001       00305460             000000000054600300      POSTAGE                   000000000000000000000000000000000000
AP0001       00305480             000000000054800300      TELEPHONE                 000000000000000000000000000000000000
AP0001       00305500             000000000055000300      DATA PROCESSING           000000000000000000000000000000000000
AP0001       00305520             000000000055200300      DUES & SUBSCRIPTIONS      000000000000000000000000000000000000
AP0001       00305540             000000000055400300      CONTRIBUTIONS             000000000000000000000000000000000000
AP0001       00305560             000000000055600300      UTILITIES                 000000000000000000000000000000000000
AP0001       00305580             000000000055800300      RENT & LEASE              000000000000000000000000000000000000
AP0001       00305600             000000000056000300      INSURANCE                 000000000000000000000000000000000000
AP0001       00305640             000000000056404300      REPAIR & MAINTENANCE      000000000000000000000000000000000000
AP0001       00305880             000000000058000300      LEGAL EXPENSE             000000000000000000000000000000000000
AP0001       00305992             000000000059902300      OTHER EXPENSE             000000000000000000000000000000000000
AP0001       00405141             000000000051401400      TRAINING-PATHFINDER       000000000000000000000000000000000000
AP0001       00405144             000000000051404400      TRAINING-ON THE JOB       000000000000000000000000000000000000
AP0001       00405145             000000000051405400      TRAINING-IN HOUSE         000000000000000000000000000000000000
AP0001       00405200             000000000052000400      DEMONSTRATION             000000000000000000000000000000000000
AP0001       00405220             000000000052200400      TRAVEL                    000000000000000000000000000000000000
AP0001       00405240             000000000052400400      ENTERTAINMENT             000000000000000000000000000000000000
AP0001       00405260             000000000052600400      ADVERTISING & PROMO       000000000000000000000000000000000000
AP0001       00405300             000000000053000400      AFTER SALES               000000000000000000000000000000000000
AP0001       00405401             000000000054001400      VEHICLE EXPENSE           000000000000000000000000000000000000
AP0001       00405440             000000000054400400      SUPPLIES                  000000000000000000000000000000000000
AP0001       00405460             000000000054600400      POSTAGE                   000000000000000000000000000000000000
AP0001       00405480             000000000054800400      TELEPHONE                 000000000000000000000000000000000000
AP0001       00405500             000000000055000400      DATA PROCESSING           000000000000000000000000000000000000
AP0001       00405520             000000000055200400      DUES & SUBSCRIPTIONS      000000000000000000000000000000000000
AP0001       00405540             000000000055400400      CONTRIBUTIONS             000000000000000000000000000000000000
AP0001       00405560             000000000055600400      UTILITIES                 000000000000000000000000000000000000
AP0001       00405580             000000000055800400      RENT & LEASE              000000000000000000000000000000000000
AP0001       00405600             000000000056000400      INSURANCE                 000000000000000000000000000000000000
AP0001       00405640             000000000056404400      REPAIR & MAINTENANCE      000000000000000000000000000000000000
AP0001       00405880             000000000058000400      LEGAL EXPENSE             000000000000000000000000000000000000
AP0001       00405992             000000000059902400      OTHER EXPENSE             000000000000000000000000000000000000
CG                                N A     N N N                                     000000000000000000000000000000000000
CG0001AR     0000000001           000000000010400000      CUSTOMER RECEIVABLES      000000000000000000000000000000000000
CG0001AS     0000000001           000000000053000200      AFTER SALES               000000000000000000000000000000000000
CG0001AS     0000000002           000000000053200200      POLICY ADJUSTMENTS        000000000000000000000000000000000000
CG0001CA     0000000001           000000000010101000      CASH ON HAND              000000000000000000000000000000000000
CG0001CA     0000000002           000000000010200000      CASH IN BANK              000000000000000000000000000000000000
CG0001CS     0000000020           000000000042000200      JD FARM                   000000000000000000000000000000000000
CG0001CS     0000000022           000000000042200200      JD CONSUMER               000000000000000000000000000000000000
CG0001CS     0000000026           000000000042600200      HINIKER                   000000000000000000000000000000000000
CG0001CS     0000000044           000000000044400200      JD ATTACHMENTS            000000000000000000000000000000000000
CG0001CS     0000000058           000000000045800200      OTHER ATTACHMENTS         000000000000000000000000000000000000
CG0001CS     0000000060           000000000046000200      USED                      000000000000000000000000000000000000
CG0001CS     0000000062           000000000046201200      RENT & LEASE              000000000000000000000000000000000000
CG0001DE     0000000001           000000000023900000      CUSTOMER ADVANCES         000000000000000000000000000000000000
CG0001DO     0000000020           000000000032100200      JD FARM                   000000000000000000000000000000000000
CG0001DO     0000000022           000000000032300200      JD CONSUMER               000000000000000000000000000000000000
CG0001DO     0000000026           000000000032700200      HINIKER                   000000000000000000000000000000000000
CG0001DO     0000000044           000000000034500200      JD ATTACHMENTS            000000000000000000000000000000000000
CG0001DO     0000000058           000000000035900200      OTHER ATTACHMENTS         000000000000000000000000000000000000
CG0001DO     0000000060           000000000036100200      USED                      000000000000000000000000000000000000
CG0001DO     0000000062           000000000036201200      RENT & LEASE              000000000000000000000000000000000000
CG0001DP     0000000086           000000000018905000      RES.FOR DEPR-RNTL FL      000000000000000000000000000000000000
CG0001FP     0000000000           000000000010902000      FARM PLAN RECEIVABLE      000000000000000000000000000000000000
CG0001IN     0000000020           000000000012000000      JD FARM                   000000000000000000000000000000000000
CG0001IN     0000000022           000000000012200000      JD CONSUMER               000000000000000000000000000000000000
CG0001IN     0000000026           000000000012600000      HINIKER                   000000000000000000000000000000000000
CG0001IN     0000000044           000000000014401000      JD ATTACHMENTS            000000000000000000000000000000000000
CG0001IN     0000000058           000000000015800000      OTHER ATTACHMENTS         000000000000000000000000000000000000
CG0001IN     0000000060           000000000016000000      USED                      000000000000000000000000000000000000
CG0001IN     0000000062           000000000016200000      RENT & LEASE              000000000000000000000000000000000000
CG0001IN     0000000086           000000000018600000      RENTAL FLEET              000000000000000000000000000000000000
CG0001IT     0000000001           000000000085500200      INTEREST PAYMENTS         000000000000000000000000000000000000
CG0001M      0000009900           000000000034400200      MISC ATTACHMENTS          000000000000000000000000000000000000
CG0001M      0000010000           000000000024901000      FILING FEES               000000000000000000000000000000000000
CG0001M      0000010100           000000000024901000      STAMPS                    000000000000000000000000000000000000
CG0001M      0000010200           000000000034200200      CHAINSAWS/TIRES/FUEL      000000000000000000000000000000000000
CG0001M      0000010300           000000000055800200      RNTL DELIVERY-CSTMR       000000000000000000000000000000000000
CG0001M      0000010400           000000000055800400      RNTL HAULING-SERVICE      000000000000000000000000000000000000
CG0001MC     0000000001           000000000000000000      IN BASE                   000000000000000000000000000000000000
CG0001MC     0000000002           000000000024901000      SET UP                    000000000000000000000000000000000000
CG0001MS     0000000001           000000000058000200      REGISTRATION FEES         000000000000000000000000000000000000
CG0001MS     0000000002           000000000025800000      ACCRUED TAX PAYABLE       000000000000000000000000000000000000
CG0001MS     0000000003           000000000056200200      OTHER TAXES               000000000000000000000000000000000000
CG0001NC     0000000001           000000000024901000      CLEARING NOTES            000000000000000000000000000000000000
CG0001NT     0000000001           000000000011200000      CUSTOMER NOTES            000000000000000000000000000000000000
CG0001RE     0000000020           000000000046201200      RENTAL EXPENSE            000000000000000000000000000000000000
CG0001RE     0000000086           000000000046201200      RNTL FLT-RENTAL EXP       000000000000000000000000000000000000
CG0001RI     0000000020           000000000036201200      RENTAL INCOME             000000000000000000000000000000000000
CG0001RI     0000000086           000000000036201200      RNTL FLT- RENTAL INC      000000000000000000000000000000000000
CG0001RP     0000000020           000000000042000200      RENTAL PARTS EXPENSE      000000000000000000000000000000000000
CG0001RP     0000000022           000000000042200200      RENTAL PARTS EXPENSE      000000000000000000000000000000000000
CG0001RP     0000000026           000000000042600200      RENTAL PARTS EXPENSE      000000000000000000000000000000000000
CG0001RP     0000000044           000000000044400200      RENTAL PARTS EXPENSE      000000000000000000000000000000000000
CG0001RP     0000000058           000000000045800200      RENTAL PARTS EXPENSE      000000000000000000000000000000000000
CG0001RP     0000000060           000000000046000200      RENTAL PARTS EXPENSE      000000000000000000000000000000000000
CG0001RP     0000000062           000000000046201200      RENTAL PARTS EXPENSE      000000000000000000000000000000000000
CG0001RS     0000000020           000000000046202200      RENTAL SERVICE EXP        000000000000000000000000000000000000
CG0001SA     0000000020           000000000032000200      JD FARM                   000000000000000000000000000000000000
CG0001SA     0000000022           000000000032200200      JD CONSUMER               000000000000000000000000000000000000
CG0001SA     0000000026           000000000032600200      HINIKER                   000000000000000000000000000000000000
CG0001SA     0000000044           000000000034400200      JD ATTACHMENTS            000000000000000000000000000000000000
CG0001SA     0000000058           000000000035800200      OTHER ATTACHMENTS         000000000000000000000000000000000000
CG0001SA     0000000060           000000000036000200      USED                      000000000000000000000000000000000000
CG0001SA     0000000062           000000000036201200      RENT & LEASE              000000000000000000000000000000000000
CG0001TI     0000000000           000000000024901000      CLEARING TRADE-INS        000000000000000000000000000000000000
CG0001TP     0000000000           000000000021600000      TRANSFER PAYABLE          000000000000000000000000000000000000
CG0001TR     0000000000           000000000011600000      TRANSFER RECEIVABLE       000000000000000000000000000000000000
CG0001TX     0000000001           000000000023000000      SALES TAX 6%              000000000023400000000000000011400000
CG0001VP     0000000100           000000000020000000      JD FARM                   000000000000000000000000000000000000
CG0001VP     0000000200           000000000020200000      JD CONSUMER               000000000000000000000000000000000000
CG0001VP     0000100200           000000000021500000      CENTRAL                   000000000000000000000000000000000000
CG0001VP     0000100300           000000000021500000      HINIKER                   000000000000000000000000000000000000
CG0001VP     0000100500           000000000021500000      MELROSE                   000000000000000000000000000000000000
CG0002AR     0000000001           000000000010400000      CUSTOMER RECEIVABLES      000000000000000000000000000000000000
CG0002AS     0000000001           000000000053000210      AFTER SALES               000000000000000000000000000000000000
CG0002AS     0000000002           000000000053200210      POLICY ADJUSTMENTS        000000000000000000000000000000000000
CG0002CA     0000000001           000000000010101000      CASH ON HAND              000000000000000000000000000000000000
CG0002CA     0000000002           000000000010200000      CASH IN BANK              000000000000000000000000000000000000
CG0002CS     0000000020           000000000042000210      JD FARM                   000000000000000000000000000000000000
CG0002CS     0000000022           000000000042200210      JD CONSUMER               000000000000000000000000000000000000
CG0002CS     0000000026           000000000042600210      HINIKER                   000000000000000000000000000000000000
CG0002CS     0000000044           000000000044400210      JD ATTACHMENTS            000000000000000000000000000000000000
CG0002CS     0000000058           000000000045800210      OTHER ATTACHMENTS         000000000000000000000000000000000000
CG0002CS     0000000060           000000000046000210      USED                      000000000000000000000000000000000000
CG0002CS     0000000062           000000000046201210      RENT & LEASE              000000000000000000000000000000000000
CG0002DE     0000000001           000000000023900000      CUSTOMER ADVANCES         000000000000000000000000000000000000
CG0002DO     0000000020           000000000032100210      JD FARM                   000000000000000000000000000000000000
CG0002DO     0000000022           000000000032300210      JD CONSUMER               000000000000000000000000000000000000
CG0002DO     0000000026           000000000032700210      HINIKER                   000000000000000000000000000000000000
CG0002DO     0000000044           000000000034500210      JD ATTACHMENTS            000000000000000000000000000000000000
CG0002DO     0000000058           000000000035900210      OTHER ATTACHMENTS         000000000000000000000000000000000000
CG0002DO     0000000060           000000000036100210      USED                      000000000000000000000000000000000000
CG0002DO     0000000062           000000000036201210      RENT & LEASE              000000000000000000000000000000000000
CG0002DP     0000000086           000000000018905000      RES.FOR DEPR-RNTL FL      000000000000000000000000000000000000
CG0002FP     0000000000           000000000010902000      FARM PLAN RECEIVABLE      000000000000000000000000000000000000
CG0002IN     0000000020           000000000012000000      JD FARM                   000000000000000000000000000000000000
CG0002IN     0000000022           000000000012200000      JD CONSUMER               000000000000000000000000000000000000
CG0002IN     0000000026           000000000012600000      HINIKER                   000000000000000000000000000000000000
CG0002IN     0000000044           000000000014401000      JD ATTACHMENTS            000000000000000000000000000000000000
CG0002IN     0000000058           000000000015800000      OTHER ATTACHMENTS         000000000000000000000000000000000000
CG0002IN     0000000060           000000000016000000      USED                      000000000000000000000000000000000000
CG0002IN     0000000062           000000000016200000      RENT & LEASE              000000000000000000000000000000000000
CG0002IN     0000000086           000000000018600000      RENTAL FLEET              000000000000000000000000000000000000
CG0002M      0000009900           000000000034400210      MISC ATTACHMENTS          000000000000000000000000000000000000
CG0002M      0000010000           000000000024901000      FILING FEES               000000000000000000000000000000000000
CG0002M      0000010100           000000000024901000      STAMPS                    000000000000000000000000000000000000
CG0002M      0000010200           000000000034200210      CHAINSAWS/TIRES/FUEL      000000000000000000000000000000000000
CG0002M      0000010300           000000000055800210      RNTL DELIVERY-CSTMR       000000000000000000000000000000000000
CG0002M      0000010400           000000000055800410      RNTL HAULING-SERVICE      000000000000000000000000000000000000
CG0002MC     0000000001           000000000000000000      IN BASE                   000000000000000000000000000000000000
CG0002MC     0000000002           000000000024901000      SET UP                    000000000000000000000000000000000000
CG0002MS     0000000001           000000000058000210      REGISTRATION FEES         000000000000000000000000000000000000
CG0002MS     0000000002           000000000025800000      ACCRUED TAX PAYABLE       000000000000000000000000000000000000
CG0002MS     0000000003           000000000056200210      OTHER TAXES               000000000000000000000000000000000000
CG0002NC     0000000001           000000000024901000      CLEARING NOTES            000000000000000000000000000000000000
CG0002NT     0000000001           000000000011200000      CUSTOMER NOTES            000000000000000000000000000000000000
CG0002RE     0000000020           000000000046201210      RENTAL EXPENSE            000000000000000000000000000000000000
CG0002RE     0000000086           000000000046201210      RNTL FLT-RENTAL EXP       000000000000000000000000000000000000
CG0002RI     0000000020           000000000036201210      RENTAL INCOME             000000000000000000000000000000000000
CG0002RI     0000000086           000000000036201210      RNTL FLT- RENTAL INC      000000000000000000000000000000000000
CG0002RP     0000000020           000000000042000210      RENTAL PARTS EXPENSE      000000000000000000000000000000000000
CG0002RP     0000000022           000000000042200210      RENTAL PARTS EXPENSE      000000000000000000000000000000000000
CG0002RP     0000000026           000000000042600210      RENTAL PARTS EXPENSE      000000000000000000000000000000000000
CG0002RP     0000000044           000000000044400210      RENTAL PARTS EXPENSE      000000000000000000000000000000000000
CG0002RP     0000000058           000000000045800210      RENTAL PARTS EXPENSE      000000000000000000000000000000000000
CG0002RP     0000000060           000000000046000210      RENTAL PARTS EXPENSE      000000000000000000000000000000000000
CG0002RP     0000000062           000000000046201210      RENTAL PARTS EXPENSE      000000000000000000000000000000000000
CG0002RS     0000000020           000000000046202210      RENTAL SERVICE EXP        000000000000000000000000000000000000
CG0002SA     0000000020           000000000032000210      JD FARM                   000000000000000000000000000000000000
CG0002SA     0000000022           000000000032200210      JD CONSUMER               000000000000000000000000000000000000
CG0002SA     0000000026           000000000032600210      HINIKER                   000000000000000000000000000000000000
CG0002SA     0000000044           000000000034400210      JD ATTACHMENTS            000000000000000000000000000000000000
CG0002SA     0000000058           000000000035800210      OTHER ATTACHMENTS         000000000000000000000000000000000000
CG0002SA     0000000060           000000000036000210      USED                      000000000000000000000000000000000000
CG0002SA     0000000062           000000000036201210      RENT & LEASE              000000000000000000000000000000000000
CG0002TI     0000000000           000000000024901000      CLEARING TRADE-INS        000000000000000000000000000000000000
CG0002TP     0000000000           000000000021600000      TRANSFER PAYABLE          000000000000000000000000000000000000
CG0002TR     0000000000           000000000011600000      TRANSFER RECEIVABLE       000000000000000000000000000000000000
CG0002TX     0000000001           000000000023000000      SALES TAX 6%              000000000023400000000000000011400000
CG0002VP     0000000100           000000000020000000      JD FARM                   000000000000000000000000000000000000
CG0002VP     0000000200           000000000020200000      JD CONSUMER               000000000000000000000000000000000000
CG0002VP     0000100200           000000000021500000      CENTRAL                   000000000000000000000000000000000000
CG0002VP     0000100300           000000000021500000      HINIKER                   000000000000000000000000000000000000
CG0002VP     0000100500           000000000021500000      MELROSE                   000000000000000000000000000000000000
CG0003AR     0000000001           000000000010400000      CUSTOMER RECEIVABLES      000000000000000000000000000000000000
CG0003AS     0000000001           000000000053000220      AFTER SALES               000000000000000000000000000000000000
CG0003AS     0000000002           000000000053200220      POLICY ADJUSTMENTS        000000000000000000000000000000000000
CG0003CA     0000000001           000000000010101000      CASH ON HAND              000000000000000000000000000000000000
CG0003CA     0000000002           000000000010200000      CASH IN BANK              000000000000000000000000000000000000
CG0003CS     0000000020           000000000042000220      JD INDUSTRIAL             000000000000000000000000000000000000
CG0003CS     0000000022           000000000042200220      JD CONSUMER               000000000000000000000000000000000000
CG0003CS     0000000026           000000000042600220      HINIKER                   000000000000000000000000000000000000
CG0003CS     0000000044           000000000044400220      JD ATTACHMENTS            000000000000000000000000000000000000
CG0003CS     0000000058           000000000045800220      OTHER ATTACHMENTS         000000000000000000000000000000000000
CG0003CS     0000000060           000000000046000220      USED                      000000000000000000000000000000000000
CG0003CS     0000000062           000000000046201220      RENT & LEASE              000000000000000000000000000000000000
CG0003DE     0000000001           000000000023900000      CUSTOMER ADVANCES         000000000000000000000000000000000000
CG0003DO     0000000020           000000000032100220      JD INDUSTRIAL             000000000000000000000000000000000000
CG0003DO     0000000022           000000000032300220      JD CONSUMER               000000000000000000000000000000000000
CG0003DO     0000000026           000000000032700220      HINIKER                   000000000000000000000000000000000000
CG0003DO     0000000044           000000000034500220      JD ATTACHMENTS            000000000000000000000000000000000000
CG0003DO     0000000058           000000000035900220      OTHER ATTACHMENTS         000000000000000000000000000000000000
CG0003DO     0000000060           000000000036100220      USED                      000000000000000000000000000000000000
CG0003DO     0000000062           000000000036201220      RENT & LEASE              000000000000000000000000000000000000
CG0003DP     0000000086           000000000018905000      RES.FOR DEPR-RNTL FL      000000000000000000000000000000000000
CG0003FP     0000000000           000000000010902000      FARM PLAN RECEIVABLE      000000000000000000000000000000000000
CG0003IN     0000000020           000000000012000000      JD INDUSTRIAL             000000000000000000000000000000000000
CG0003IN     0000000022           000000000012200000      JD CONSUMER               000000000000000000000000000000000000
CG0003IN     0000000026           000000000012600000      HINIKER                   000000000000000000000000000000000000
CG0003IN     0000000044           000000000014401000      JD ATTACHMENTS            000000000000000000000000000000000000
CG0003IN     0000000058           000000000015800000      OTHER ATTACHMENTS         000000000000000000000000000000000000
CG0003IN     0000000060           000000000016000000      USED                      000000000000000000000000000000000000
CG0003IN     0000000062           000000000016200000      RENT & LEASE              000000000000000000000000000000000000
CG0003IN     0000000086           000000000018600000      RENTAL FLEET              000000000000000000000000000000000000
CG0003M      0000009900           000000000034400220      MISC ATTACHMENTS          000000000000000000000000000000000000
CG0003M      0000010000           000000000024901000      FILING FEES               000000000000000000000000000000000000
CG0003M      0000010100           000000000024901000      STAMPS                    000000000000000000000000000000000000
CG0003M      0000010200           000000000034200220      CHAINSAWS/TIRES/FUEL      000000000000000000000000000000000000
CG0003M      0000010300           000000000055800220      RNTL DELIVERY-CSTMR       000000000000000000000000000000000000
CG0003M      0000010400           000000000055800420      RNTL HAULING-SERVICE      000000000000000000000000000000000000
CG0003MC     0000000001           000000000000000000      IN BASE                   000000000000000000000000000000000000
CG0003MC     0000000002           000000000024901000      SET UP                    000000000000000000000000000000000000
CG0003MS     0000000001           000000000058000220      REGISTRATION FEES         000000000000000000000000000000000000
CG0003MS     0000000002           000000000025800000      ACCRUED TAX PAYABLE       000000000000000000000000000000000000
CG0003MS     0000000003           000000000056200220      OTHER TAXES               000000000000000000000000000000000000
CG0003NC     0000000001           000000000024901000      CLEARING NOTES            000000000000000000000000000000000000
CG0003NT     0000000001           000000000011200000      CUSTOMER NOTES            000000000000000000000000000000000000
CG0003RE     0000000020           000000000046201220      RENTAL EXPENSE            000000000000000000000000000000000000
CG0003RE     0000000086           000000000046201220      RNTL FLT-RENTAL EXP       000000000000000000000000000000000000
CG0003RI     0000000020           000000000036201220      RENTAL INCOME             000000000000000000000000000000000000
CG0003RI     0000000086           000000000036201220      RNTL FLT- RENTAL INC      000000000000000000000000000000000000
CG0003RP     0000000020           000000000042000220      RENTAL PARTS EXPENSE      000000000000000000000000000000000000
CG0003RP     0000000022           000000000042200220      RENTAL PARTS EXPENSE      000000000000000000000000000000000000
CG0003RP     0000000026           000000000042600220      RENTAL PARTS EXPENSE      000000000000000000000000000000000000
CG0003RP     0000000044           000000000044400220      RENTAL PARTS EXPENSE      000000000000000000000000000000000000
CG0003RP     0000000058           000000000045800220      RENTAL PARTS EXPENSE      000000000000000000000000000000000000
CG0003RP     0000000060           000000000046000220      RENTAL PARTS EXPENSE      000000000000000000000000000000000000
CG0003RP     0000000062           000000000046201220      RENTAL PARTS EXPENSE      000000000000000000000000000000000000
CG0003RS     0000000020           000000000046202220      RENTAL SERVICE EXP        000000000000000000000000000000000000
CG0003SA     0000000020           000000000032000220      JD INDUSTRIAL             000000000000000000000000000000000000
CG0003SA     0000000022           000000000032200220      JD CONSUMER               000000000000000000000000000000000000
CG0003SA     0000000026           000000000032600220      HINIKER                   000000000000000000000000000000000000
CG0003SA     0000000044           000000000034400220      JD ATTACHMENTS            000000000000000000000000000000000000
CG0003SA     0000000058           000000000035800220      OTHER ATTACHMENTS         000000000000000000000000000000000000
CG0003SA     0000000060           000000000036000220      USED                      000000000000000000000000000000000000
CG0003SA     0000000062           000000000036201220      RENT & LEASE              000000000000000000000000000000000000
CG0003TI     0000000000           000000000024901000      CLEARING TRADE-INS        000000000000000000000000000000000000
CG0003TP     0000000000           000000000021600000      TRANSFER PAYABLE          000000000000000000000000000000000000
CG0003TR     0000000000           000000000011600000      TRANSFER RECEIVABLE       000000000000000000000000000000000000
CG0003TX     0000000001           000000000023000000      SALES TAX 6%              000000000023400000000000000011400000
CG0003VP     0000000100           000000000020000000      JD INDUSTRIAL             000000000000000000000000000000000000
CG0003VP     0000000200           000000000020200000      JD CONSUMER               000000000000000000000000000000000000
CG0003VP     0000100200           000000000021500000      CENTRAL                   000000000000000000000000000000000000
CG0003VP     0000100300           000000000021500000      HINIKER                   000000000000000000000000000000000000
CG0003VP     0000100500           000000000021500000      MELROSE                   000000000000000000000000000000000000
MI                                N A A   A N                                       000000000000000000000000000000000000
MI0000X      1D  0000             000000000016601000      TRANSFER WHSE-1D          000000000000000000000000000011600000
MI0000X      1M  0000             000000000017201000      TRANSFER WHSE-1M          000000000000000000000000000011600000
MI0000X      2D  0000             000000000016602000      TRANSFER WHSE-2D          000000000000000000000000000011600000
MI0000X      2M  0000             000000000017202000      TRANSFER WHSE-2M          000000000000000000000000000011600000
MI0000X      3D  0000             000000000016603000      TRANSFER WHSE-3D          000000000000000000000000000011600000
MI0000X      3M  0000             000000000017203000      TRANSFER WHSE-3M          000000000000000000000000000011600000
MI0001C 1        0000             000000000010101000N     CASH SALE                 000000000000000000000000000000000000
MI0001C 2        0000             000000000010400000      CHARGE SALE               000000000000000000000000000000000000
MI0001C 3        0000             000000000098888880      OTHER SALES               000000000000000000000000000000000000
MI0001C 3    MC  0000             000000000010903000      MASTER CARD CHARGES       000000000000000000000000000000000000
MI0001C 3    VISA0000             000000000010904000      VISA CHARGES              000000000000000000000000000000000000
MI0001C 4        0000             000000000010500000      WARRANTY SALE             000000000000000000000000000000000000
MI0001C 5        0000             000000000098888880      INTERNAL SALE             000000000000000000000000000000000000
MI0001C 6        0000             000000000098888880      EXPENSE                   000000000000000000000000000000000000
MI0001C 7        0000             000000000098888880      RENT & LEASE              000000000000000000000000000000000000
MI0001C 8        0000             000000000098888880      RECONDITIONING            000000000000000000000000000000000000
MI0001C 9        0000             000000000010902000      FARM PLAN SALE            000000000000000000000000000000000000
MI0001M          1050             000000000010500000      BATTERY WARRANTY          000000000000000000000000000000000000
MI0001M          1661             000000000016601000      CORE CHG/CR               000000000000000000000000000000000000
MI0001M          1721             000000000017201000      CORE CHG/CR-OTHER         000000000000000000000000000000000000
MI0001M          3662             000000000036601300      RESTOCKING FEE            000000000000000000000000000000000000
MI0001M          3722             000000000037202300      RESTOCKING FEE-OTHER      000000000000000000000000000000000000
MI0001M          3750             000000000037500300      FREIGHT                   000000000000000000000000000000000000
MI0001M          3790             000000000037900300      PARTS DISCOUNT ALLOWED    000000000000000000000000000000000000
MI0001M          3811             000000000038101400      MISC CUST LABOR           000000000000000000000000000000000000
MI0001M          3940             000000000039400400      O/S LABOR & MATERIAL      000000000000000000000000000000000000
MI0001M          3970             000000000039700400      SVC LBR DISC ALLOWED      000000000000000000000000000000000000
MI0001M          3980             000000000039800400      SVC N-LBR DISC ALLOWED    000000000000000000000000000000000000
MI0001M          5323             000000000053200300      POLICY ADJ-PARTS          000000000000000000000000000000000000
MI0001M          5324             000000000053200400      POLICY ADJ-SERV           000000000000000000000000000000000000
MI0001M          5340             000000000053400300      CASH DISCOUNTS ALLOWT     000000000000000000000000000000000000
MI0001M          5341             000000000053400100      EARLY PAYMT DISCOUNT      000000000000000000000000000000000000
MI0001M          ROA              000000000010400000      RECEIVED ON ACCOUNT       000000000000000000000000000000000000
MI0001P          0000             000000000099901000      MI PARTS DEFAULT          000000000037900300000000000000000000
MI0001P      1D  0000             000000000099902000      J.D. PARTS DEFAULT        000000000037900300000000000000000000
MI0001P      1M  0000             000000000099903000      VENDOR PARTS DEFAULT      000000000037900300000000000000000000
MI0001P PC   1D  0000             000000000036601300      JD PARTS SLS CUST         000000000037900300000000000000000000
MI0001P PC   1M  0000             000000000037201300      OTHER PARTS CUST          000000000037900300000000000000000000
MI0001P PI   1D  0000             000000000036602300      JD PARTS INT              000000000037900300000000000000000000
MI0001P PI   1M  0000             000000000037202300      OTHER PARTS INT           000000000037900300000000000000000000
MI0001P PW   1D  0000             000000000036603300      JD PARTS WARR             000000000037900300000000000000000000
MI0001P PW   1M  0000             000000000037203300      OTHER PARTS WARR          000000000037900300000000000000000000
MI0001T          0000             000000000099904000      MI DEFAULT SALES TAX      000000000000000000000000000000000000
MI0001T 01       0000             000000000023000000      SALES TAX                 000000000000000000000000000000000000
MI0001T 09       0000             000000000023000000      SALES TAX                 000000000000000000000000000000000000
MI0002C 1        0000             000000000010101000N     CASH SALE                 000000000000000000000000000000000000
MI0002C 2        0000             000000000010400000      CHARGE SALE               000000000000000000000000000000000000
MI0002C 3        0000             000000000098888880      OTHER SALES               000000000000000000000000000000000000
MI0002C 3    MC  0000             000000000010903000      MASTER CARD CHARGES       000000000000000000000000000000000000
MI0002C 3    VISA0000             000000000010904000      VISA CHARGES              000000000000000000000000000000000000
MI0002C 4        0000             000000000010500000      WARRANTY SALE             000000000000000000000000000000000000
MI0002C 5        0000             000000000098888880      INTERNAL SALE             000000000000000000000000000000000000
MI0002C 6        0000             000000000098888880      EXPENSE                   000000000000000000000000000000000000
MI0002C 7        0000             000000000098888880      RENT & LEASE              000000000000000000000000000000000000
MI0002C 8        0000             000000000098888880      RECONDITIONING            000000000000000000000000000000000000
MI0002C 9        0000             000000000010902000      FARM PLAN SALE            000000000000000000000000000000000000
MI0002M          1050             000000000010500000      BATTERY WARRANTY          000000000000000000000000000000000000
MI0002M          1661             000000000016602000      CORE CHG/CR               000000000000000000000000000000000000
MI0002M          1721             000000000017202000      CORE CHG/CR-OTHER         000000000000000000000000000000000000
MI0002M          3662             000000000036601310      RESTOCKING FEE            000000000000000000000000000000000000
MI0002M          3722             000000000037203310      RESTOCKING FEE-OTHER      000000000000000000000000000000000000
MI0002M          3750             000000000037500310      FREIGHT                   000000000000000000000000000000000000
MI0002M          3790             000000000037900310      PARTS DISCOUNT ALLOWED    000000000000000000000000000000000000
MI0002M          3811             000000000038101410      MISC CUST LABOR           000000000000000000000000000000000000
MI0002M          3940             000000000039400410      O/S LABOR & MATERIAL      000000000000000000000000000000000000
MI0002M          3970             000000000039700410      SVC LBR DISC ALLOWED      000000000000000000000000000000000000
MI0002M          3980             000000000039800410      SVC N-LBR DISC ALLOWED    000000000000000000000000000000000000
MI0002M          5323             000000000053200310      POLICY ADJ-PARTS          000000000000000000000000000000000000
MI0002M          5324             000000000053200410      POLICY ADJ-SERV           000000000000000000000000000000000000
MI0002M          5340             000000000053400310      CASH DISCOUNTS ALLOWT     000000000000000000000000000000000000
MI0002M          5341             000000000053400110      EARLY PAYMT DISCOUNT      000000000000000000000000000000000000
MI0002M          ROA              000000000010400000      RECEIVED ON ACCOUNT       000000000000000000000000000000000000
MI0002P          0000             000000000099901000      MI PARTS DEFAULT          000000000037900310000000000000000000
MI0002P      2D  0000             000000000099902000      J.D. PARTS DEFAULT        000000000037900310000000000000000000
MI0002P      2M  0000             000000000099903000      VENDOR PARTS DEFAULT      000000000037900310000000000000000000
MI0002P PC   2D  0000             000000000036601310      JD PARTS SLS CUST         000000000037900310000000000000000000
MI0002P PC   2M  0000             000000000037201310      OTHER PARTS CUST          000000000037900310000000000000000000
MI0002P PI   2D  0000             000000000036602310      JD PARTS INT              000000000037900310000000000000000000
MI0002P PI   2M  0000             000000000037202310      OTHER PARTS INT           000000000037900310000000000000000000
MI0002P PW   2D  0000             000000000036603310      JD PARTS WARR             000000000037900310000000000000000000
MI0002P PW   2M  0000             000000000037203310      OTHER PARTS WARR          000000000037900310000000000000000000
MI0002T          0000             000000000099904000      MI DEFAULT SALES TAX      000000000000000000000000000000000000
MI0002T 01       0000             000000000023000000      SALES TAX                 000000000000000000000000000000000000
MI0002T 09       0000             000000000023000000      SALES TAX                 000000000000000000000000000000000000
MI0003C 1        0000             000000000010101000N     CASH SALE                 000000000000000000000000000000000000
MI0003C 2        0000             000000000010400000      CHARGE SALE               000000000000000000000000000000000000
MI0003C 3        0000             000000000098888880      OTHER SALES               000000000000000000000000000000000000
MI0003C 3    MC  0000             000000000010903000      MASTER CARD CHARGES       000000000000000000000000000000000000
MI0003C 3    VISA0000             000000000010904000      VISA CHARGES              000000000000000000000000000000000000
MI0003C 4        0000             000000000010500000      WARRANTY SALE             000000000000000000000000000000000000
MI0003C 5        0000             000000000098888880      INTERNAL SALE             000000000000000000000000000000000000
MI0003C 6        0000             000000000098888880      EXPENSE                   000000000000000000000000000000000000
MI0003C 7        0000             000000000098888880      RENT & LEASE              000000000000000000000000000000000000
MI0003C 8        0000             000000000098888880      RECONDITIONING            000000000000000000000000000000000000
MI0003C 9        0000             000000000010902000      FARM PLAN SALE            000000000000000000000000000000000000
MI0003M          1050             000000000010500000      BATTERY WARRANTY          000000000000000000000000000000000000
MI0003M          1661             000000000016603000      CORE CHG/CR               000000000000000000000000000000000000
MI0003M          1721             000000000017203000      CORE CHG/CR-OTHER         000000000000000000000000000000000000
MI0003M          3662             000000000036601320      RESTOCKING FEE            000000000000000000000000000000000000
MI0003M          3722             000000000037201320      RESTOCKING FEE-OTHER      000000000000000000000000000000000000
MI0003M          3750             000000000037500320      FREIGHT                   000000000000000000000000000000000000
MI0003M          3790             000000000037900320      PARTS DISCOUNT ALLOWED    000000000000000000000000000000000000
MI0003M          3811             000000000038101420      MISC CUST LABOR           000000000000000000000000000000000000
MI0003M          3940             000000000039400420      O/S LABOR & MATERIAL      000000000000000000000000000000000000
MI0003M          3970             000000000039700420      SVC LBR DISC ALLOWED      000000000000000000000000000000000000
MI0003M          3980             000000000039800420      SVC N-LBR DISC ALLOWED    000000000000000000000000000000000000
MI0003M          5323             000000000053200320      POLICY ADJ-PARTS          000000000000000000000000000000000000
MI0003M          5324             000000000053200420      POLICY ADJ-SERV           000000000000000000000000000000000000
MI0003M          5340             000000000053400320      CASH DISCOUNTS ALLOWT     000000000000000000000000000000000000
MI0003M          5341             000000000053400120      EARLY PAYMT DISCOUNT      000000000000000000000000000000000000
MI0003M          ROA              000000000010400000      RECEIVED ON ACCOUNT       000000000000000000000000000000000000
MI0003P          0000             000000000099901000      MI PARTS DEFAULT          000000000037900320000000000000000000
MI0003P      3D  0000             000000000099902000      J.D. PARTS DEFAULT        000000000037900320000000000000000000
MI0003P      3M  0000             000000000099903000      VENDOR PARTS DEFAULT      000000000037900320000000000000000000
MI0003P PC   3D  0000             000000000036601320      JD PARTS SLS CUST         000000000037900320000000000000000000
MI0003P PC   3M  0000             000000000037201320      OTHER PARTS CUST          000000000037900320000000000000000000
MI0003P PI   3D  0000             000000000036602320      JD PARTS INT              000000000037900320000000000000000000
MI0003P PI   3M  0000             000000000037202320      OTHER PARTS INT           000000000037900320000000000000000000
MI0003P PW   3D  0000             000000000036603320      JD PARTS WARR             000000000037900320000000000000000000
MI0003P PW   3M  0000             000000000037203320      OTHER PARTS WARR          000000000037900320000000000000000000
MI0003T          0000             000000000099904000      MI DEFAULT SALES TAX      000000000000000000000000000000000000
MI0003T 01       0000             000000000023000000      SALES TAX                 000000000000000000000000000000000000
MI0003T 09       0000             000000000023000000      SALES TAX                 000000000000000000000000000000000000
MS                                N A A   A N A                                     000000000000000000000000000000000000
MS0001C 1        0000             000000000010101000N     CASH SALE                 000000000000000000000000000000000000
MS0001C 2        0000             000000000010400000      CHARGE SALE               000000000000000000000000000000000000
MS0001C 3        0000             000000000098888880      OTHER                     000000000000000000000000000000000000
MS0001C 3    MC  0000             000000000010903000      MASTER CARD CHARGES       000000000000000000000000000000000000
MS0001C 3    VISA0000             000000000010904000      VISA CHARGES              000000000000000000000000000000000000
MS0001C 4        0000             000000000010500000      WARRANTY                  000000000000000000000000000000000000
MS0001C 4        0000P            000000000010600000      PIP WORK ORDERS           000000000000000000000000000000000000
MS0001C 4        0000W            000000000010500000      WARRANTY WORK ORDERS      000000000000000000000000000000000000
MS0001C 5        0000             000000000098888880      INTERNAL SALE             000000000000000000000000000000000000
MS0001C 6        0000             000000000098888880      EXPENSE                   000000000000000000000000000000000000
MS0001C 7        0000             000000000098888880      RENT & LEASE              000000000000000000000000000000000000
MS0001C 8        0000             000000000098888880      COMPLETE GOODS            000000000000000000000000000000000000
MS0001C 9        0000             000000000010902000      FARM PLAN                 000000000000000000000000000000000000
MS0001L          0000             000000000099920000      DEFAULT LABOR SLS         000000000039700400000000000000000000
MS0001L ACL      0000NV           000000000039901400      QT VARI-AG CUS LBR        000000000000000000000000000000000000
MS0001L ACL      0000PV           000000000038103400      QT VARI-AG CUS LBR        000000000000000000000000000000000000
MS0001L ACL      0001             000000000038101400      CUST LBR REPAIR           000000000039700400000000000000000000
MS0001L ACL      0002             000000000038102400      CUST LBR FIELD            000000000039700400000000000000000000
MS0001L ACL      0003             000000000038103400      CUST LBR OTHER            000000000039700400000000000000000000
MS0001L ADV      0001             000000000048701400      DEL VEH COS               000000000000000000000000000049001400
MS0001L AEE      0007             000000000048701400      EMP BEN-COFFEE BK         000000000000000000000000000051607400
MS0001L AEE      0008             000000000048702400      VAC,HOLIDAYS,SICK         000000000000000000000000000051608400
MS0001L AIN      0000NV           000000000039902400      QT VARI-AG INTERNAL       000000000000000000000000000000000000
MS0001L AIN      0000PV           000000000038204400      QT VARI-AG INTERNAL       000000000000000000000000000000000000
MS0001L AIN      0001             000000000038201400      INTRNL LBR REPAIR         000000000039700400000000000000000000
MS0001L AIN      0002             000000000038202400      INTRNL LBR RECONDITIONG   000000000039700400000000000000000000
MS0001L AIN      0003             000000000038203400      INTL LBR SETUP/PREDE      000000000039700400000000000000000000
MS0001L AIN      0004             000000000038204400      INTRNL LBR OTHER          000000000039700400000000000000000000
MS0001L ALA      0001             000000000038103400      SVC LBR ALL-CUST          000000000039700400000000000039901400
MS0001L ALA      0002             000000000038204400      SVC LBR ALL-INTR          000000000039700400000000000039902400
MS0001L ALA      0003             000000000038303400      SVC LBR ALL-WARR          000000000039700400000000000039903400
MS0001L ALA      0004             000000000038403400      SVC LBR ALL-PIP           000000000039700400000000000039904400
MS0001L AME      0001             000000000048701400      R&M-SWEEPING/CLEANING     000000000000000000000000000056401400
MS0001L AME      0002             000000000048701400      R&M-BUILDING MAINT        000000000000000000000000000056402400
MS0001L AME      0003             000000000048701400      R&M-GROUNDS MAINT         000000000000000000000000000056403400
MS0001L AME      0004             000000000048701400      R&M-OTHER                 000000000000000000000000000056404400
MS0001L AME      0020             000000000048701400      REP&MNT-SALES             000000000000000000000000000056404200
MS0001L AME      0030             000000000048701400      REP&MNT-PARTS             000000000000000000000000000056404300
MS0001L ANR      0001             000000000024999000      NON-REVENUE SALARY        000000000000000000000000000024999000
MS0001L AOE      0001             000000000048701400      DOWNTIME DELAYS           000000000000000000000000000059901400
MS0001L AOE      0002             000000000048701400      OTHER EXP-SERV            000000000000000000000000000059902400
MS0001L AOE      0010             000000000048701400      OTHER EXP-ADMIN           000000000000000000000000000059902100
MS0001L AOE      0020             000000000048701400      OTHER EXP-SALES           000000000000000000000000000059902200
MS0001L AOE      0030             000000000048701400      OTHER EXP-PARTS           000000000000000000000000000059902300
MS0001L APE      0001             000000000048701400      PROMO EXP-SERVICE         000000000000000000000000000052600400
MS0001L APE      0020             000000000048701400      PROMO EXP-SALES           000000000000000000000000000052600200
MS0001L APE      0030             000000000048701400      PROMO EXP-PARTS           000000000000000000000000000052600300
MS0001L APP      0000NV           000000000039904400      QUOTE VARI AG-PIP         000000000000000000000000000000000000
MS0001L APP      0000PV           000000000038403400      QUOTE VARI AG-PIP         000000000000000000000000000000000000
MS0001L APP      0001             000000000038401400      PIP LBR REPAIR            000000000039700400000000000000000000
MS0001L APP      0002             000000000038402400      PIP LBR FIELD             000000000039700400000000000000000000
MS0001L APP      0003             000000000038403400      PIP LBR OTHER             000000000039700400000000000000000000
MS0001L ARE      0002             000000000048701400      WARRANTY-REWORK           000000000000000000000000000052802400
MS0001L ASE      0001             000000000048701400      SPC SVC EQ DYNO           000000000000000000000000000049501400
MS0001L ASE      0002             000000000048701400      SPC SVC EQ REFRIG         000000000000000000000000000049502400
MS0001L ASE      0003             000000000048701400      SPC SVC EQ #3             000000000000000000000000000049503400
MS0001L ASE      0004             000000000048701400      SPC SVC EQ #4             000000000000000000000000000049504400
MS0001L ASE      0005             000000000048701400      SPC SVC EQ #5             000000000000000000000000000049505400
MS0001L ASV      0001             000000000048701400      SVC VEH COST              000000000000000000000000000049201400
MS0001L ATE      0001             000000000048701400      TRAIN-PATHFINDER          000000000000000000000000000051401400
MS0001L ATE      0002             000000000048701400      TRAINING-BRANCH           000000000000000000000000000051402400
MS0001L ATE      0003             000000000048701400      TRAIN-TERRITORY           000000000000000000000000000051403400
MS0001L ATE      0004             000000000048701400      TRAIN-ON THE JOB          000000000000000000000000000051404400
MS0001L ATE      0005             000000000048701400      TRAIN-IN-HOUSE            000000000000000000000000000051405400
MS0001L ATM      0002             000000000048701400      TECHN AS SVC MGR          000000000000000000000000000050202400
MS0001L AVE      0001             000000000048701400      VEH EXP-SALES #1          000000000000000000000000000054001200
MS0001L AVE      0002             000000000048701400      VEH EXP-SALES #2          000000000000000000000000000054002200
MS0001L AVE      0003             000000000048701400      VEH EXP-SALES #3          000000000000000000000000000054003200
MS0001L AVE      0004             000000000048701400      VEH EXP-SALES #4          000000000000000000000000000054004200
MS0001L AVE      0030             000000000048701400      VEH EXP - PARTS           000000000000000000000000000054001300
MS0001L AVE      0040             000000000048701400      VEH EXP - FORKLIFT        000000000000000000000000000054001400
MS0001L AWR      0000NV           000000000039903400      QT VARI AG-WARRANTY       000000000000000000000000000000000000
MS0001L AWR      0000PV           000000000038303400      QT VARI AG-WARRANTY       000000000000000000000000000000000000
MS0001L AWR      0001             000000000038301400      WARR LBR REPAIR           000000000039700400000000000000000000
MS0001L AWR      0002             000000000038302400      WARR LBR FIELD            000000000039700400000000000000000000
MS0001L AWR      0003             000000000038303400      WARR LBR OTHER            000000000039700400000000000000000000
MS0001L CCL      0000NV           000000000039901400      QT VARI-CP CUS LBR        000000000000000000000000000000000000
MS0001L CCL      0000PV           000000000038103400      QT VARI-CP CUS LBR        000000000000000000000000000000000000
MS0001L CCL      0001             000000000038101400      CUST LBR REPAIR           000000000039700400000000000000000000
MS0001L CCL      0002             000000000038102400      CUST LBR FIELD            000000000039700400000000000000000000
MS0001L CCL      0003             000000000038103400      CUST LBR OTHER            000000000039700400000000000000000000
MS0001L CDV      0001             000000000048701400      DEL VEH COS               000000000000000000000000000049001400
MS0001L CEE      0007             000000000048701400      EMP BEN-COFFEE BK         000000000000000000000000000051607400
MS0001L CEE      0008             000000000048702400      VAC,HOLIDAYS,SICK         000000000000000000000000000051608400
MS0001L CIN      0000NV           000000000039902400      QT VARI-CP INTERNAL       000000000000000000000000000000000000
MS0001L CIN      0000PV           000000000038204400      QT VARI-CP INTERNAL       000000000000000000000000000000000000
MS0001L CIN      0001             000000000038201400      INTRNL LBR REPAIR         000000000039700400000000000000000000
MS0001L CIN      0002             000000000038202400      INTRNL LBR RECONDITIONG   000000000039700400000000000000000000
MS0001L CIN      0003             000000000038203400      INTRNL LBR SETUP/DELIV    000000000039700400000000000000000000
MS0001L CIN      0004             000000000038204400      INTRNL LBR OTHER          000000000039700400000000000000000000
MS0001L CLA      0001             000000000038103400      SVC LBR ALL-CUST          000000000039700400000000000039901400
MS0001L CLA      0002             000000000038204400      SVC LBR ALL-INTR          000000000039700400000000000039902400
MS0001L CLA      0003             000000000038303400      SVC LBR ALL-WARR          000000000039700400000000000039903400
MS0001L CLA      0004             000000000038403400      SVC LBR ALL-PIP           000000000039700400000000000039904400
MS0001L CME      0001             000000000048701400      R&M-SWEEPING/CLEANING     000000000000000000000000000056401400
MS0001L CME      0002             000000000048701400      R&M-BUILDING MAINT        000000000000000000000000000056402400
MS0001L CME      0003             000000000048701400      R&M-GROUNDS MAINT         000000000000000000000000000056403400
MS0001L CME      0004             000000000048701400      R&M-OTHER                 000000000000000000000000000056404400
MS0001L CME      0020             000000000048701400      REP&MNT-SALES             000000000000000000000000000056404200
MS0001L CME      0030             000000000048701400      REP&MNT-PARTS             000000000000000000000000000056404300
MS0001L CNR      0001             000000000024999000      NON-REVENUE SALARY        000000000000000000000000000024999000
MS0001L COE      0001             000000000048701400      DOWNTIME DELAYS           000000000000000000000000000059901400
MS0001L COE      0002             000000000048701400      OTHER EXP-SERV            000000000000000000000000000059902400
MS0001L COE      0010             000000000048701400      OTHER EXP-ADMIN           000000000000000000000000000059902100
MS0001L COE      0020             000000000048701400      OTHER EXP-SALES           000000000000000000000000000059902200
MS0001L COE      0030             000000000048701400      OTHER EXP-PARTS           000000000000000000000000000059902300
MS0001L CPE      0001             000000000048701400      PROMO EXP-SERVICE         000000000000000000000000000052600400
MS0001L CPE      0020             000000000048701400      PROMO EXP-SALES           000000000000000000000000000052600200
MS0001L CPE      0030             000000000048701400      PROMO EXP-PARTS           000000000000000000000000000052600300
MS0001L CPP      0000NV           000000000039904400      QUOTE VARI CP-PIP         000000000000000000000000000000000000
MS0001L CPP      0000PV           000000000038403400      QUOTE VARI CP-PIP         000000000000000000000000000000000000
MS0001L CPP      0001             000000000038401400      PIP LBR REPAIR            000000000039700400000000000000000000
MS0001L CPP      0002             000000000038402400      PIP LBR FIELD             000000000039700400000000000000000000
MS0001L CPP      0003             000000000038403400      PIP LBR OTHER             000000000039700400000000000000000000
MS0001L CRE      0002             000000000048701400      WARRANTY-REWORK           000000000000000000000000000052802400
MS0001L CSE      0001             000000000048701400      SPC SVC EQ DYNO           000000000000000000000000000049501400
MS0001L CSE      0002             000000000048701400      SPC SVC EQ REFRIG         000000000000000000000000000049502400
MS0001L CSE      0003             000000000048701400      SPC SVC EQ #3             000000000000000000000000000049503400
MS0001L CSE      0004             000000000048701400      SPC SVC EQ #4             000000000000000000000000000049504400
MS0001L CSE      0005             000000000048701400      SPC SVC EQ #5             000000000000000000000000000049505400
MS0001L CSV      0001             000000000048701400      SVC VEH COST              000000000000000000000000000049201400
MS0001L CTE      0001             000000000048701400      TRAIN-PATHFINDER          000000000000000000000000000051401400
MS0001L CTE      0002             000000000048701400      TRAINING-BRANCH           000000000000000000000000000051402400
MS0001L CTE      0003             000000000048701400      TRAIN-TERRITORY           000000000000000000000000000051403400
MS0001L CTE      0004             000000000048701400      TRAIN-ON THE JOB          000000000000000000000000000051404400
MS0001L CTE      0005             000000000048701400      TRAIN-IN-HOUSE            000000000000000000000000000051405400
MS0001L CTM      0002             000000000048701400      TECHN AS SVC MGR          000000000000000000000000000050202400
MS0001L CVE      0001             000000000048701400      VEH EXP-SALES #1          000000000000000000000000000054001200
MS0001L CVE      0002             000000000048701400      VEH EXP-SALES #2          000000000000000000000000000054002200
MS0001L CVE      0003             000000000048701400      VEH EXP-SALES #3          000000000000000000000000000054003200
MS0001L CVE      0004             000000000048701400      VEH EXP-SALES #4          000000000000000000000000000054004200
MS0001L CVE      0030             000000000048701400      VEH EXP - PARTS           000000000000000000000000000054001300
MS0001L CVE      0040             000000000048701400      VEH EXP - FORKLIFT        000000000000000000000000000054001400
MS0001L CWR      0000NV           000000000039903400      QT VARI CP-WARRANTY       000000000000000000000000000000000000
MS0001L CWR      0000PV           000000000038303400      QT VARI CP-WARRANTY       000000000000000000000000000000000000
MS0001L CWR      0001             000000000038301400      WARR LBR REPAIR           000000000039700400000000000000000000
MS0001L CWR      0002             000000000038302400      WARR LBR FIELD            000000000039700400000000000000000000
MS0001L CWR      0003             000000000038303400      WARR LBR OTHER            000000000039700400000000000000000000
MS0001L ICL      0000NV           000000000039906420      QT VARI-IN CUS LBR        000000000000000000000000000000000000
MS0001L ICL      0000PV           000000000039905420      QT VARI-IN CUS LBR        000000000000000000000000000000000000
MS0001L ICL      0001             000000000038101400      CUST LBR REPAIR           000000000039700400000000000000000000
MS0001L ICL      0002             000000000038102400      CUST LBR FIELD            000000000039700400000000000000000000
MS0001L ICL      0003             000000000038103400      CUST LBR OTHER            000000000039700400000000000000000000
MS0001L IDV      0001             000000000048701400      DEL VEH COS               000000000000000000000000000049001400
MS0001L IEE      0007             000000000048701400      EMP BEN-COFFEE BK         000000000000000000000000000051607400
MS0001L IEE      0008             000000000048702400      VAC,HOLIDAYS,SICK         000000000000000000000000000051608400
MS0001L IIN      0000NV           000000000039906420      QT VARI-IN INTERNAL       000000000000000000000000000000000000
MS0001L IIN      0000PV           000000000039905420      QT VARI-IN INTERNAL       000000000000000000000000000000000000
MS0001L IIN      0001             000000000038201400      INTRNL LBR REPAIR         000000000039700400000000000000000000
MS0001L IIN      0002             000000000038202400      INTRNL LBR RECONDITIONG   000000000039700400000000000000000000
MS0001L IIN      0003             000000000038203400      INTL LBR SETUP/PREDE      000000000039700400000000000000000000
MS0001L IIN      0004             000000000038204400      INTRNL LBR OTHER          000000000039700400000000000000000000
MS0001L ILA      0001             000000000038103400      SVC LBR ALL-CUST          000000000039700400000000000039901400
MS0001L ILA      0002             000000000038204400      SVC LBR ALL-INTR          000000000039700400000000000039902400
MS0001L ILA      0003             000000000038303400      SVC LBR ALL-WARR          000000000039700400000000000039903400
MS0001L ILA      0004             000000000038403400      SVC LBR ALL-PIP           000000000039700400000000000039904400
MS0001L IME      0001             000000000048701400      R&M-SWEEPING/CLEANING     000000000000000000000000000056401400
MS0001L IME      0002             000000000048701400      R&M-BUILDING MAINT        000000000000000000000000000056402400
MS0001L IME      0003             000000000048701400      R&M-GROUNDS MAINT         000000000000000000000000000056403400
MS0001L IME      0004             000000000048701400      R&M-OTHER                 000000000000000000000000000056404400
MS0001L IME      0020             000000000048701400      REP&MNT-SALES             000000000000000000000000000056404200
MS0001L IME      0030             000000000048701400      REP&MNT-PARTS             000000000000000000000000000056404300
MS0001L INR      0001             000000000024999000      NON-REVENUE SALARY        000000000000000000000000000024999000
MS0001L IOE      0001             000000000048701400      DOWNTIME DELAYS           000000000000000000000000000059901400
MS0001L IOE      0002             000000000048701400      OTHER EXP-SERV            000000000000000000000000000059902400
MS0001L IOE      0010             000000000048701400      OTHER EXP-ADMIN           000000000000000000000000000059902100
MS0001L IOE      0020             000000000048701400      OTHER EXP-SALES           000000000000000000000000000059902200
MS0001L IOE      0030             000000000048701400      OTHER EXP-PARTS           000000000000000000000000000059902300
MS0001L IPE      0001             000000000048701400      PROMO EXP-SERVICE         000000000000000000000000000052600400
MS0001L IPE      0020             000000000048701400      PROMO EXP-SALES           000000000000000000000000000052600200
MS0001L IPE      0030             000000000048701400      PROMO EXP-PARTS           000000000000000000000000000052600300
MS0001L IPP      0000NV           000000000039906420      QUOTE VARI IN-PIP         000000000000000000000000000000000000
MS0001L IPP      0000PV           000000000039905420      QUOTE VARI IN-PIP         000000000000000000000000000000000000
MS0001L IPP      0001             000000000038401400      PIP LBR REPAIR            000000000039700400000000000000000000
MS0001L IPP      0002             000000000038402400      PIP LBR FIELD             000000000039700400000000000000000000
MS0001L IPP      0003             000000000038403400      PIP LBR OTHER             000000000039700400000000000000000000
MS0001L IRE      0002             000000000048701400      WARRANTY-REWORK           000000000000000000000000000052802400
MS0001L ISE      0001             000000000048701400      SPC SVC EQ DYNO           000000000000000000000000000049501400
MS0001L ISE      0002             000000000048701400      SPC SVC EQ REFRIG         000000000000000000000000000049502400
MS0001L ISE      0003             000000000048701400      SPC SVC EQ #3             000000000000000000000000000049503400
MS0001L ISE      0004             000000000048701400      SPC SVC EQ #4             000000000000000000000000000049504400
MS0001L ISE      0005             000000000048701400      SPC SVC EQ #5             000000000000000000000000000049505400
MS0001L ISV      0001             000000000048701400      SVC VEH COS #1            000000000000000000000000000049201400
MS0001L ITE      0001             000000000048701400      TRAIN-PATHFINDER          000000000000000000000000000051401400
MS0001L ITE      0002             000000000048701400      TRAINING-BRANCH           000000000000000000000000000051402400
MS0001L ITE      0003             000000000048701400      TRAIN-TERRITORY           000000000000000000000000000051403400
MS0001L ITE      0004             000000000048701400      TRAIN-ON THE JOB          000000000000000000000000000051404400
MS0001L ITE      0005             000000000048701400      TRAIN-IN-HOUSE            000000000000000000000000000051405400
MS0001L ITM      0002             000000000048701400      TECHN AS SVC MGR          000000000000000000000000000050202400
MS0001L IVE      0001             000000000048701400      VEH EXP-SALES #1          000000000000000000000000000054001200
MS0001L IVE      0002             000000000048701400      VEH EXP-SALES #2          000000000000000000000000000054002200
MS0001L IVE      0003             000000000048701400      VEH EXP-SALES #3          000000000000000000000000000054003200
MS0001L IVE      0004             000000000048701400      VEH EXP-SALES #4          000000000000000000000000000054004200
MS0001L IVE      0030             000000000048701400      VEH EXP - PARTS           000000000000000000000000000054001300
MS0001L IVE      0040             000000000048701400      VEH EXP - FORKLIFT        000000000000000000000000000054001400
MS0001L IWR      0000NV           000000000039906420      QT VARI IN-WARRANTY       000000000000000000000000000000000000
MS0001L IWR      0000PV           000000000039905420      QT VARI IN-WARRANTY       000000000000000000000000000000000000
MS0001L IWR      0001             000000000038301400      WARR LBR REPAIR           000000000039700400000000000000000000
MS0001L IWR      0002             000000000038302400      WARR LBR FIELD            000000000039700400000000000000000000
MS0001L IWR      0003             000000000038303400      WARR LBR OTHER            000000000039700400000000000000000000
MS0001M          0000NV           000000000039800400      QUOTE VARI-MISC CHGS      000000000000000000000000000000000000
MS0001M          0000PV           000000000039800400      QUOTE VARI-MISC CHGS      000000000000000000000000000000000000
MS0001M          1050             000000000010500000      BATTERY WARRANTY          000000000037900300000000000000000000
MS0001M          1661             000000000016601000      CORE CHG/CR               000000000037900300000000000000000000
MS0001M          3750             000000000037500300      FREIGHT                   000000000037900300000000000000000000
MS0001M          3770             000000000037701400      SERVICE ACCESSORIES       000000000039800400000000000000000000
MS0001M          3771             000000000037701400      SERVICE ACCESSORIES       000000000039800400000000000000000000
MS0001M          3772             000000000037702400      EPA DISPOSAL FEE          000000000039800400000000000000000000
MS0001M          3790             000000000037900300      PARTS DISCOUNT            000000000037900300000000000000000000
MS0001M          3901             000000000039001400      MILEAGE DEL VEH           000000000039800400000000000000000000
MS0001M          3902             000000000039002400      DRIVING TIME-DEL VEH      000000000039800400000000000000000000
MS0001M          3921             000000000039201400      MILEAGE SRV VEHICLE       000000000039800400000000000000000000
MS0001M          3940             000000000039400400      O/S LABOR & MATERIAL      000000000039800400000000000000000000
MS0001M          3951             000000000039501400      DYNO CHARGE               000000000039800400000000000000000000
MS0001M          3952             000000000039502400      REFRIGERANT RECOVERY      000000000039800400000000000000000000
MS0001M          3953             000000000039503400      SPC SRV EQ #3             000000000039800400000000000000000000
MS0001M          3954             000000000039504400      SPC SRV EQ #4             000000000039800400000000000000000000
MS0001M          3955             000000000039505400      SPC SRV EQ #5             000000000039800400000000000000000000
MS0001M          3970             000000000039700400      SVC LBR DISC ALLOWED      000000000039700400000000000000000000
MS0001M          3980             000000000039800400      SVC N-LBR DISC ALLOWED    000000000039800400000000000000000000
MS0001M          5281             000000000052801200      WARRANTY PAID BY DLR      000000000039800400000000000000000000
MS0001M          5324             000000000053200400      POLICY ADJUSTMENT         000000000039800400000000000000000000
MS0001M          5340             000000000053400400      CASH DISCOUNTS ALLOW      000000000039800400000000000000000000
MS0001M          5341             000000000053400100      EARLY PAYMT DISCOUNT      000000000039800400000000000000000000
MS0001P          0000             000000000099921000      MI PARTS DEFAULT          000000000037900300000000000000000000
MS0001P      1D  0000             000000000099922000      JD PARTS DEFAULT          000000000037900300000000000000000000
MS0001P      1M  0000             000000000099923000      VENDOR PARTS DEFAULT      000000000037900300000000000000000000
MS0001P PC       0000NV           000000000037900300      QUOTE VARI-CUSTOMER       000000000000000000000000000000000000
MS0001P PC       0000PV           000000000037900300      QUOTE VARI-CUSTOMER       000000000000000000000000000000000000
MS0001P PC   1D  0000             000000000036601300      JD PARTS SLS CUST         000000000037900300000000000000000000
MS0001P PC   1M  0000             000000000037201300      OTHER PARTS CUST          000000000037900300000000000000000000
MS0001P PI       0000NV           000000000037900300      QUOTE VARI-INTERNAL       000000000000000000000000000000000000
MS0001P PI       0000PV           000000000037900300      QUOTE VARI-INTERNAL       000000000000000000000000000000000000
MS0001P PI   1D  0000             000000000036602300      JD PARTS INT              000000000037900300000000000000000000
MS0001P PI   1M  0000             000000000037202300      OTHER PARTS INT           000000000037900300000000000000000000
MS0001P PW       0000NV           000000000037900300      QUOTE VARI-WARRANTY       000000000000000000000000000000000000
MS0001P PW       0000PV           000000000037900300      QUOTE VARI-WARRANTY       000000000000000000000000000000000000
MS0001P PW   1D  0000             000000000036603300      JD PARTS WARR             000000000037900300000000000000000000
MS0001P PW   1M  0000             000000000037203300      OTHER PARTS WARR          000000000037900300000000000000000000
MS0001T          0000             000000000099924000      MS DEFAULT SALES TAX      000000000000000000000000000000000000
MS0001T 01       0000             000000000023000000      SALES TAX                 000000000000000000000000000000000000
MS0001T 09       0000             000000000023000000      SALES TAX                 000000000000000000000000000000000000
MS0001U          0000             000000000017800000      WORK IN PROCESS           000000000000000000000000000000000000
MS0001W AG       0000             000000000020000000      WARRANTY RECON            000000000052801200000000000000000000
MS0001W CP       0000             000000000020200000      WARRANTY RECON            000000000052801200000000000000000000
MS0001W IN       0000             000000000020000000      WARRANTY RECON            000000000052801200000000000000000000
MS0001W P        0000             000000000037900300      PARTS/LABOR VAR-PIPS      000000000052801400000000000000000000
MS0001W W        0000             000000000037900300      PARTS/LABOR VAR-WRTY      000000000052801400000000000000000000
MS0002C 1        0000             000000000010101000N     CASH SALE                 000000000000000000000000000000000000
MS0002C 2        0000             000000000010400000      CHARGE SALE               000000000000000000000000000000000000
MS0002C 3        0000             000000000098888880      OTHER                     000000000000000000000000000000000000
MS0002C 3    MC  0000             000000000010903000      MASTER CARD CHARGES       000000000000000000000000000000000000
MS0002C 3    VISA0000             000000000010904000      VISA CHARGES              000000000000000000000000000000000000
MS0002C 4        0000             000000000010500000      WARRANTY                  000000000000000000000000000000000000
MS0002C 4        0000P            000000000010600000      PIP WORK ORDERS           000000000000000000000000000000000000
MS0002C 4        0000W            000000000010500000      WARRANTY WORK ORDERS      000000000000000000000000000000000000
MS0002C 5        0000             000000000098888880      INTERNAL SALE             000000000000000000000000000000000000
MS0002C 6        0000             000000000098888880      EXPENSE                   000000000000000000000000000000000000
MS0002C 7        0000             000000000098888880      RENT & LEASE              000000000000000000000000000000000000
MS0002C 8        0000             000000000098888880      COMPLETE GOODS            000000000000000000000000000000000000
MS0002C 9        0000             000000000010902000      FARM PLAN                 000000000000000000000000000000000000
MS0002L          0000             000000000099920000      DEFAULT LABOR SLS         000000000039700410000000000000000000
MS0002L ACL      0000NV           000000000039901410      QT VARI-AG CUS LBR        000000000000000000000000000000000000
MS0002L ACL      0000PV           000000000038103410      QT VARI-AG CUS LBR        000000000000000000000000000000000000
MS0002L ACL      0001             000000000038101410      CUST LBR REPAIR           000000000039700410000000000000000000
MS0002L ACL      0002             000000000038102410      CUST LBR FIELD            000000000039700410000000000000000000
MS0002L ACL      0003             000000000038103410      CUST LBR OTHER            000000000039700410000000000000000000
MS0002L ADV      0001             000000000048701410      DEL VEH COS               000000000000000000000000000049001410
MS0002L AEE      0007             000000000048701410      EMP BEN-COFFEE BK         000000000000000000000000000051607410
MS0002L AEE      0008             000000000048702410      VAC,HOLIDAYS,SICK         000000000000000000000000000051608410
MS0002L AIN      0000NV           000000000039902410      QT VARI-AG INTERNAL       000000000000000000000000000000000000
MS0002L AIN      0000PV           000000000038204410      QT VARI-AG INTERNAL       000000000000000000000000000000000000
MS0002L AIN      0001             000000000038201410      INTRNL LBR REPAIR         000000000039700410000000000000000000
MS0002L AIN      0002             000000000038202410      INTRNL LBR RECONDITIONG   000000000039700410000000000000000000
MS0002L AIN      0003             000000000038203410      INTL LBR SETUP/PREDE      000000000039700410000000000000000000
MS0002L AIN      0004             000000000038204410      INTRNL LBR OTHER          000000000039700410000000000000000000
MS0002L ALA      0001             000000000038103410      SVC LBR ALL-CUST          000000000039700410000000000039901410
MS0002L ALA      0002             000000000038204410      SVC LBR ALL-INTR          000000000039700410000000000039902410
MS0002L ALA      0003             000000000038303410      SVC LBR ALL-WARR          000000000039700410000000000039903410
MS0002L ALA      0004             000000000038403410      SVC LBR ALL-PIP           000000000039700410000000000039904410
MS0002L AME      0001             000000000048701410      R&M-SWEEPING/CLEANING     000000000000000000000000000056401410
MS0002L AME      0002             000000000048701410      R&M-BUILDING MAINT        000000000000000000000000000056402410
MS0002L AME      0003             000000000048701410      R&M-GROUNDS MAINT         000000000000000000000000000056403410
MS0002L AME      0004             000000000048701410      R&M-OTHER                 000000000000000000000000000056404410
MS0002L AME      0020             000000000048701410      REP&MNT-SALES             000000000000000000000000000056404210
MS0002L AME      0030             000000000048701410      REP&MNT-PARTS             000000000000000000000000000056404310
MS0002L ANR      0001             000000000024999000      NON-REVENUE SALARY        000000000000000000000000000024999000
MS0002L AOE      0001             000000000048701410      DOWNTIME DELAYS           000000000000000000000000000059901410
MS0002L AOE      0002             000000000048701410      OTHER EXP-SERV            000000000000000000000000000059902410
MS0002L AOE      0010             000000000048701410      OTHER EXP-ADMIN           000000000000000000000000000059902110
MS0002L AOE      0020             000000000048701410      OTHER EXP-SALES           000000000000000000000000000059902210
MS0002L AOE      0030             000000000048701410      OTHER EXP-PARTS           000000000000000000000000000059902310
MS0002L APE      0001             000000000048701410      PROMO EXP-SERVICE         000000000000000000000000000052600410
MS0002L APE      0020             000000000048701410      PROMO EXP-SALES           000000000000000000000000000052600210
MS0002L APE      0030             000000000048701410      PROMO EXP-PARTS           000000000000000000000000000052600310
MS0002L APP      0000NV           000000000039904410      QUOTE VARI AG-PIP         000000000000000000000000000000000000
MS0002L APP      0000PV           000000000038403410      QUOTE VARI AG-PIP         000000000000000000000000000000000000
MS0002L APP      0001             000000000038401410      PIP LBR REPAIR            000000000039700410000000000000000000
MS0002L APP      0002             000000000038402410      PIP LBR FIELD             000000000039700410000000000000000000
MS0002L APP      0003             000000000038403410      PIP LBR OTHER             000000000039700410000000000000000000
MS0002L ARE      0002             000000000048701410      WARRANTY-REWORK           000000000000000000000000000052802410
MS0002L ASE      0001             000000000048701410      SPC SVC EQ DYNO           000000000000000000000000000049501410
MS0002L ASE      0002             000000000048701410      SPC SVC EQ REFRIG         000000000000000000000000000049502410
MS0002L ASE      0003             000000000048701410      SPC SVC EQ #3             000000000000000000000000000049503410
MS0002L ASE      0004             000000000048701410      SPC SVC EQ #4             000000000000000000000000000049504410
MS0002L ASE      0005             000000000048701410      SPC SVC EQ #5             000000000000000000000000000049505410
MS0002L ASV      0001             000000000048701410      SVC VEH COST              000000000000000000000000000049201410
MS0002L ATE      0001             000000000048701410      TRAIN-PATHFINDER          000000000000000000000000000051401410
MS0002L ATE      0002             000000000048701410      TRAINING-BRANCH           000000000000000000000000000051402410
MS0002L ATE      0003             000000000048701410      TRAIN-TERRITORY           000000000000000000000000000051403410
MS0002L ATE      0004             000000000048701410      TRAIN-ON THE JOB          000000000000000000000000000051404410
MS0002L ATE      0005             000000000048701410      TRAIN-IN-HOUSE            000000000000000000000000000051405410
MS0002L ATM      0002             000000000048701410      TECHN AS SVC MGR          000000000000000000000000000050202410
MS0002L AVE      0001             000000000048701410      VEH EXP-SALES #1          000000000000000000000000000054001210
MS0002L AVE      0002             000000000048701410      VEH EXP-SALES #2          000000000000000000000000000054002210
MS0002L AVE      0003             000000000048701410      VEH EXP-SALES #3          000000000000000000000000000054003210
MS0002L AVE      0004             000000000048701410      VEH EXP-SALES #4          000000000000000000000000000054004210
MS0002L AVE      0030             000000000048701410      VEH EXP - PARTS           000000000000000000000000000054001310
MS0002L AVE      0040             000000000048701410      VEH EXP - FORKLIFT        000000000000000000000000000054001410
MS0002L AWR      0000NV           000000000039903410      QT VARI AG-WARRANTY       000000000000000000000000000000000000
MS0002L AWR      0000PV           000000000038303410      QT VARI AG-WARRANTY       000000000000000000000000000000000000
MS0002L AWR      0001             000000000038301410      WARR LBR REPAIR           000000000039700410000000000000000000
MS0002L AWR      0002             000000000038302410      WARR LBR FIELD            000000000039700410000000000000000000
MS0002L AWR      0003             000000000038303410      WARR LBR OTHER            000000000039700410000000000000000000
MS0002L CCL      0000NV           000000000039901410      QT VARI-CP CUS LBR        000000000000000000000000000000000000
MS0002L CCL      0000PV           000000000038103410      QT VARI-CP CUS LBR        000000000000000000000000000000000000
MS0002L CCL      0001             000000000038101410      CUST LBR REPAIR           000000000039700410000000000000000000
MS0002L CCL      0002             000000000038102410      CUST LBR FIELD            000000000039700410000000000000000000
MS0002L CCL      0003             000000000038103410      CUST LBR OTHER            000000000039700410000000000000000000
MS0002L CDV      0001             000000000048701410      DEL VEH COS               000000000000000000000000000049001410
MS0002L CEE      0007             000000000048701410      EMP BEN-COFFEE BK         000000000000000000000000000051607410
MS0002L CEE      0008             000000000048702410      VAC,HOLIDAYS,SICK         000000000000000000000000000051608410
MS0002L CIN      0000NV           000000000039902410      QT VARI-CP INTERNAL       000000000000000000000000000000000000
MS0002L CIN      0000PV           000000000038204410      QT VARI-CP INTERNAL       000000000000000000000000000000000000
MS0002L CIN      0001             000000000038201410      INTRNL LBR REPAIR         000000000039700410000000000000000000
MS0002L CIN      0002             000000000038202410      INTRNL LBR RECONDITIONG   000000000039700410000000000000000000
MS0002L CIN      0003             000000000038203410      INTRNL LBR SETUP/DELIV    000000000039700410000000000000000000
MS0002L CIN      0004             000000000038204410      INTRNL LBR OTHER          000000000039700410000000000000000000
MS0002L CLA      0001             000000000038103410      SVC LBR ALL-CUST          000000000039700410000000000039901410
MS0002L CLA      0002             000000000038204410      SVC LBR ALL-INTR          000000000039700410000000000039902410
MS0002L CLA      0003             000000000038303410      SVC LBR ALL-WARR          000000000039700410000000000039903410
MS0002L CLA      0004             000000000038403410      SVC LBR ALL-PIP           000000000039700410000000000039904410
MS0002L CME      0001             000000000048701410      R&M-SWEEPING/CLEANING     000000000000000000000000000056401410
MS0002L CME      0002             000000000048701410      R&M-BUILDING MAINT        000000000000000000000000000056402410
MS0002L CME      0003             000000000048701410      R&M-GROUNDS MAINT         000000000000000000000000000056403410
MS0002L CME      0004             000000000048701410      R&M-OTHER                 000000000000000000000000000056404410
MS0002L CME      0020             000000000048701410      REP&MNT-SALES             000000000000000000000000000056404210
MS0002L CME      0030             000000000048701410      REP&MNT-PARTS             000000000000000000000000000056404310
MS0002L CNR      0001             000000000024999000      NON-REVENUE SALARY        000000000000000000000000000024999000
MS0002L COE      0001             000000000048701410      DOWNTIME DELAYS           000000000000000000000000000059901410
MS0002L COE      0002             000000000048701410      OTHER EXP-SERV            000000000000000000000000000059902410
MS0002L COE      0010             000000000048701410      OTHER EXP-ADMIN           000000000000000000000000000059902110
MS0002L COE      0020             000000000048701410      OTHER EXP-SALES           000000000000000000000000000059902210
MS0002L COE      0030             000000000048701410      OTHER EXP-PARTS           000000000000000000000000000059902310
MS0002L CPE      0001             000000000048701410      PROMO EXP-SERVICE         000000000000000000000000000052600410
MS0002L CPE      0020             000000000048701410      PROMO EXP-SALES           000000000000000000000000000052600210
MS0002L CPE      0030             000000000048701410      PROMO EXP-PARTS           000000000000000000000000000052600310
MS0002L CPP      0000NV           000000000039904410      QUOTE VARI CP-PIP         000000000000000000000000000000000000
MS0002L CPP      0000PV           000000000038403410      QUOTE VARI CP-PIP         000000000000000000000000000000000000
MS0002L CPP      0001             000000000038401410      PIP LBR REPAIR            000000000039700410000000000000000000
MS0002L CPP      0002             000000000038402410      PIP LBR FIELD             000000000039700410000000000000000000
MS0002L CPP      0003             000000000038403410      PIP LBR OTHER             000000000039700410000000000000000000
MS0002L CRE      0002             000000000048701410      WARRANTY-REWORK           000000000000000000000000000052802410
MS0002L CSE      0001             000000000048701410      SPC SVC EQ DYNO           000000000000000000000000000049501410
MS0002L CSE      0002             000000000048701410      SPC SVC EQ REFRIG         000000000000000000000000000049502410
MS0002L CSE      0003             000000000048701410      SPC SVC EQ #3             000000000000000000000000000049503410
MS0002L CSE      0004             000000000048701410      SPC SVC EQ #4             000000000000000000000000000049504410
MS0002L CSE      0005             000000000048701410      SPC SVC EQ #5             000000000000000000000000000049505410
MS0002L CSV      0001             000000000048701410      SVC VEH COST              000000000000000000000000000049201410
MS0002L CTE      0001             000000000048701410      TRAIN-PATHFINDER          000000000000000000000000000051401410
MS0002L CTE      0002             000000000048701410      TRAINING-BRANCH           000000000000000000000000000051402410
MS0002L CTE      0003             000000000048701410      TRAIN-TERRITORY           000000000000000000000000000051403410
MS0002L CTE      0004             000000000048701410      TRAIN-ON THE JOB          000000000000000000000000000051404410
MS0002L CTE      0005             000000000048701410      TRAIN-IN-HOUSE            000000000000000000000000000051405410
MS0002L CTM      0002             000000000048701410      TECHN AS SVC MGR          000000000000000000000000000050202410
MS0002L CVE      0001             000000000048701410      VEH EXP-SALES #1          000000000000000000000000000054001210
MS0002L CVE      0002             000000000048701410      VEH EXP-SALES #2          000000000000000000000000000054002210
MS0002L CVE      0003             000000000048701410      VEH EXP-SALES #3          000000000000000000000000000054003210
MS0002L CVE      0004             000000000048701410      VEH EXP-SALES #4          000000000000000000000000000054004210
MS0002L CVE      0030             000000000048701410      VEH EXP - PARTS           000000000000000000000000000054001310
MS0002L CVE      0040             000000000048701410      VEH EXP - FORKLIFT        000000000000000000000000000054001410
MS0002L CWR      0000NV           000000000039903410      QT VARI CP-WARRANTY       000000000000000000000000000000000000
MS0002L CWR      0000PV           000000000038303410      QT VARI CP-WARRANTY       000000000000000000000000000000000000
MS0002L CWR      0001             000000000038301410      WARR LBR REPAIR           000000000039700410000000000000000000
MS0002L CWR      0002             000000000038302410      WARR LBR FIELD            000000000039700410000000000000000000
MS0002L CWR      0003             000000000038303410      WARR LBR OTHER            000000000039700410000000000000000000
MS0002L ICL      0000NV           000000000039906410      QT VARI-IN CUS LBR        000000000000000000000000000000000000
MS0002L ICL      0000PV           000000000039905410      QT VARI-IN CUS LBR        000000000000000000000000000000000000
MS0002L ICL      0001             000000000038101410      CUST LBR REPAIR           000000000039700410000000000000000000
MS0002L ICL      0002             000000000038102410      CUST LBR FIELD            000000000039700410000000000000000000
MS0002L ICL      0003             000000000038103410      CUST LBR OTHER            000000000039700410000000000000000000
MS0002L IDV      0001             000000000048701410      DEL VEH COS               000000000000000000000000000049001410
MS0002L IEE      0007             000000000048701410      EMP BEN-COFFEE BK         000000000000000000000000000051607410
MS0002L IEE      0008             000000000048702410      VAC,HOLIDAYS,SICK         000000000000000000000000000051608410
MS0002L IIN      0000NV           000000000039906410      QT VARI-IN INTERNAL       000000000000000000000000000000000000
MS0002L IIN      0000PV           000000000039905410      QT VARI-IN INTERNAL       000000000000000000000000000000000000
MS0002L IIN      0001             000000000038201410      INTRNL LBR REPAIR         000000000039700410000000000000000000
MS0002L IIN      0002             000000000038202410      INTRNL LBR RECONDITIONG   000000000039700410000000000000000000
MS0002L IIN      0003             000000000038203410      INTL LBR SETUP/PREDE      000000000039700410000000000000000000
MS0002L IIN      0004             000000000038204410      INTRNL LBR OTHER          000000000039700410000000000000000000
MS0002L ILA      0001             000000000038103410      SVC LBR ALL-CUST          000000000039700410000000000039901410
MS0002L ILA      0002             000000000038204410      SVC LBR ALL-INTR          000000000039700410000000000039902410
MS0002L ILA      0003             000000000038303410      SVC LBR ALL-WARR          000000000039700410000000000039903410
MS0002L ILA      0004             000000000038403410      SVC LBR ALL-PIP           000000000039700410000000000039904410
MS0002L IME      0001             000000000048701410      R&M-SWEEPING/CLEANING     000000000000000000000000000056401410
MS0002L IME      0002             000000000048701410      R&M-BUILDING MAINT        000000000000000000000000000056402410
MS0002L IME      0003             000000000048701410      R&M-GROUNDS MAINT         000000000000000000000000000056403410
